{
	"FirstStorage.sol": {
		"FirstStorage": {
			"abi": [
				{
					"inputs": [],
					"name": "Gustav",
					"outputs": [
						{
							"internalType": "uint256",
							"name": "id",
							"type": "uint256"
						},
						{
							"internalType": "string",
							"name": "name",
							"type": "string"
						},
						{
							"internalType": "bool",
							"name": "isAdmin",
							"type": "bool"
						}
					],
					"stateMutability": "view",
					"type": "function"
				},
				{
					"inputs": [
						{
							"internalType": "uint256",
							"name": "_id",
							"type": "uint256"
						},
						{
							"internalType": "string",
							"name": "_name",
							"type": "string"
						},
						{
							"internalType": "bool",
							"name": "_isAdmin",
							"type": "bool"
						}
					],
					"name": "addPerson",
					"outputs": [],
					"stateMutability": "nonpayable",
					"type": "function"
				},
				{
					"inputs": [
						{
							"internalType": "string",
							"name": "",
							"type": "string"
						}
					],
					"name": "nameToIsAdmin",
					"outputs": [
						{
							"internalType": "bool",
							"name": "",
							"type": "bool"
						}
					],
					"stateMutability": "view",
					"type": "function"
				},
				{
					"inputs": [
						{
							"internalType": "uint256",
							"name": "",
							"type": "uint256"
						}
					],
					"name": "personsInDB",
					"outputs": [
						{
							"internalType": "uint256",
							"name": "id",
							"type": "uint256"
						},
						{
							"internalType": "string",
							"name": "name",
							"type": "string"
						},
						{
							"internalType": "bool",
							"name": "isAdmin",
							"type": "bool"
						}
					],
					"stateMutability": "view",
					"type": "function"
				},
				{
					"inputs": [],
					"name": "retrieveName",
					"outputs": [
						{
							"internalType": "string",
							"name": "",
							"type": "string"
						}
					],
					"stateMutability": "view",
					"type": "function"
				},
				{
					"inputs": [
						{
							"internalType": "uint256",
							"name": "_userID",
							"type": "uint256"
						}
					],
					"name": "storeID",
					"outputs": [],
					"stateMutability": "nonpayable",
					"type": "function"
				},
				{
					"inputs": [
						{
							"internalType": "string",
							"name": "_name",
							"type": "string"
						}
					],
					"name": "storeName",
					"outputs": [],
					"stateMutability": "nonpayable",
					"type": "function"
				},
				{
					"inputs": [],
					"name": "userID",
					"outputs": [
						{
							"internalType": "uint256",
							"name": "",
							"type": "uint256"
						}
					],
					"stateMutability": "view",
					"type": "function"
				}
			],
			"devdoc": {
				"kind": "dev",
				"methods": {},
				"version": 1
			},
			"evm": {
				"assembly": "    /* \"FirstStorage.sol\":132:2646  contract FirstStorage {... */\n  mstore(0x40, 0x80)\n    /* \"FirstStorage.sol\":784:831  Person({id:10, name:\"Gustavium\", isAdmin:true}) */\n  mload(0x40)\n  dup1\n  0x60\n  add\n  0x40\n  mstore\n  dup1\n    /* \"FirstStorage.sol\":795:797  10 */\n  0x0a\n    /* \"FirstStorage.sol\":784:831  Person({id:10, name:\"Gustavium\", isAdmin:true}) */\n  dup2\n  mstore\n  0x20\n  add\n  mload(0x40)\n  dup1\n  0x40\n  add\n  0x40\n  mstore\n  dup1\n  0x09\n  dup2\n  mstore\n  0x20\n  add\n  0x47757374617669756d0000000000000000000000000000000000000000000000\n  dup2\n  mstore\n  pop\n  dup2\n  mstore\n  0x20\n  add\n    /* \"FirstStorage.sol\":825:829  true */\n  0x01\n    /* \"FirstStorage.sol\":784:831  Person({id:10, name:\"Gustavium\", isAdmin:true}) */\n  iszero\n  iszero\n  dup2\n  mstore\n  pop\n    /* \"FirstStorage.sol\":761:831  Person public Gustav = Person({id:10, name:\"Gustavium\", isAdmin:true}) */\n  0x02\n  0x00\n  dup3\n  add\n  mload\n  dup2\n  0x00\n  add\n  sstore\n  0x20\n  dup3\n  add\n  mload\n  dup2\n  0x01\n  add\n  swap1\n  dup2\n  tag_1\n  swap2\n  swap1\n  tag_2\n  jump\t// in\ntag_1:\n  pop\n  0x40\n  dup3\n  add\n  mload\n  dup2\n  0x02\n  add\n  exp(0x0100, 0x00)\n  dup2\n  sload\n  dup2\n  0xff\n  mul\n  not\n  and\n  swap1\n  dup4\n  iszero\n  iszero\n  mul\n  or\n  swap1\n  sstore\n  pop\n  pop\n  pop\n    /* \"FirstStorage.sol\":1062:1104  0xd9145CCE52D386f254917e481eB44e9943F39138 */\n  0xd9145cce52d386f254917e481eb44e9943f39138\n    /* \"FirstStorage.sol\":1032:1104  address addressFirstStorage = 0xd9145CCE52D386f254917e481eB44e9943F39138 */\n  0x08\n  exp(0x0100, 0x00)\n  dup2\n  sload\n  dup2\n  0xffffffffffffffffffffffffffffffffffffffff\n  mul\n  not\n  and\n  swap1\n  dup4\n  0xffffffffffffffffffffffffffffffffffffffff\n  and\n  mul\n  or\n  swap1\n  sstore\n  pop\n    /* \"FirstStorage.sol\":132:2646  contract FirstStorage {... */\n  callvalue\n  dup1\n  iszero\n  tag_3\n  jumpi\n  revert(0x00, 0x00)\ntag_3:\n  pop\n  jump(tag_4)\n    /* \"#utility.yul\":7:106   */\ntag_5:\n    /* \"#utility.yul\":59:65   */\n  0x00\n    /* \"#utility.yul\":93:98   */\n  dup2\n    /* \"#utility.yul\":87:99   */\n  mload\n    /* \"#utility.yul\":77:99   */\n  swap1\n  pop\n    /* \"#utility.yul\":7:106   */\n  swap2\n  swap1\n  pop\n  jump\t// out\n    /* \"#utility.yul\":112:292   */\ntag_6:\n    /* \"#utility.yul\":160:237   */\n  0x4e487b7100000000000000000000000000000000000000000000000000000000\n    /* \"#utility.yul\":157:158   */\n  0x00\n    /* \"#utility.yul\":150:238   */\n  mstore\n    /* \"#utility.yul\":257:261   */\n  0x41\n    /* \"#utility.yul\":254:255   */\n  0x04\n    /* \"#utility.yul\":247:262   */\n  mstore\n    /* \"#utility.yul\":281:285   */\n  0x24\n    /* \"#utility.yul\":278:279   */\n  0x00\n    /* \"#utility.yul\":271:286   */\n  revert\n    /* \"#utility.yul\":298:478   */\ntag_7:\n    /* \"#utility.yul\":346:423   */\n  0x4e487b7100000000000000000000000000000000000000000000000000000000\n    /* \"#utility.yul\":343:344   */\n  0x00\n    /* \"#utility.yul\":336:424   */\n  mstore\n    /* \"#utility.yul\":443:447   */\n  0x22\n    /* \"#utility.yul\":440:441   */\n  0x04\n    /* \"#utility.yul\":433:448   */\n  mstore\n    /* \"#utility.yul\":467:471   */\n  0x24\n    /* \"#utility.yul\":464:465   */\n  0x00\n    /* \"#utility.yul\":457:472   */\n  revert\n    /* \"#utility.yul\":484:804   */\ntag_8:\n    /* \"#utility.yul\":528:534   */\n  0x00\n    /* \"#utility.yul\":565:566   */\n  0x02\n    /* \"#utility.yul\":559:563   */\n  dup3\n    /* \"#utility.yul\":555:567   */\n  div\n    /* \"#utility.yul\":545:567   */\n  swap1\n  pop\n    /* \"#utility.yul\":612:613   */\n  0x01\n    /* \"#utility.yul\":606:610   */\n  dup3\n    /* \"#utility.yul\":602:614   */\n  and\n    /* \"#utility.yul\":633:651   */\n  dup1\n    /* \"#utility.yul\":623:704   */\n  tag_30\n  jumpi\n    /* \"#utility.yul\":689:693   */\n  0x7f\n    /* \"#utility.yul\":681:687   */\n  dup3\n    /* \"#utility.yul\":677:694   */\n  and\n    /* \"#utility.yul\":667:694   */\n  swap2\n  pop\n    /* \"#utility.yul\":623:704   */\ntag_30:\n    /* \"#utility.yul\":751:753   */\n  0x20\n    /* \"#utility.yul\":743:749   */\n  dup3\n    /* \"#utility.yul\":740:754   */\n  lt\n    /* \"#utility.yul\":720:738   */\n  dup2\n    /* \"#utility.yul\":717:755   */\n  sub\n    /* \"#utility.yul\":714:798   */\n  tag_31\n  jumpi\n    /* \"#utility.yul\":770:788   */\n  tag_32\n  tag_7\n  jump\t// in\ntag_32:\n    /* \"#utility.yul\":714:798   */\ntag_31:\n    /* \"#utility.yul\":535:804   */\n  pop\n    /* \"#utility.yul\":484:804   */\n  swap2\n  swap1\n  pop\n  jump\t// out\n    /* \"#utility.yul\":810:951   */\ntag_9:\n    /* \"#utility.yul\":859:863   */\n  0x00\n    /* \"#utility.yul\":882:885   */\n  dup2\n    /* \"#utility.yul\":874:885   */\n  swap1\n  pop\n    /* \"#utility.yul\":905:908   */\n  dup2\n    /* \"#utility.yul\":902:903   */\n  0x00\n    /* \"#utility.yul\":895:909   */\n  mstore\n    /* \"#utility.yul\":939:943   */\n  0x20\n    /* \"#utility.yul\":936:937   */\n  0x00\n    /* \"#utility.yul\":926:944   */\n  keccak256\n    /* \"#utility.yul\":918:944   */\n  swap1\n  pop\n    /* \"#utility.yul\":810:951   */\n  swap2\n  swap1\n  pop\n  jump\t// out\n    /* \"#utility.yul\":957:1050   */\ntag_10:\n    /* \"#utility.yul\":994:1000   */\n  0x00\n    /* \"#utility.yul\":1041:1043   */\n  0x20\n    /* \"#utility.yul\":1036:1038   */\n  0x1f\n    /* \"#utility.yul\":1029:1034   */\n  dup4\n    /* \"#utility.yul\":1025:1039   */\n  add\n    /* \"#utility.yul\":1021:1044   */\n  div\n    /* \"#utility.yul\":1011:1044   */\n  swap1\n  pop\n    /* \"#utility.yul\":957:1050   */\n  swap2\n  swap1\n  pop\n  jump\t// out\n    /* \"#utility.yul\":1056:1163   */\ntag_11:\n    /* \"#utility.yul\":1100:1108   */\n  0x00\n    /* \"#utility.yul\":1150:1155   */\n  dup3\n    /* \"#utility.yul\":1144:1148   */\n  dup3\n    /* \"#utility.yul\":1140:1156   */\n  shl\n    /* \"#utility.yul\":1119:1156   */\n  swap1\n  pop\n    /* \"#utility.yul\":1056:1163   */\n  swap3\n  swap2\n  pop\n  pop\n  jump\t// out\n    /* \"#utility.yul\":1169:1562   */\ntag_12:\n    /* \"#utility.yul\":1238:1244   */\n  0x00\n    /* \"#utility.yul\":1288:1289   */\n  0x08\n    /* \"#utility.yul\":1276:1286   */\n  dup4\n    /* \"#utility.yul\":1272:1290   */\n  mul\n    /* \"#utility.yul\":1311:1408   */\n  tag_37\n    /* \"#utility.yul\":1341:1407   */\n  0xffffffffffffffffffffffffffffffffffffffffffffffffffffffffffffffff\n    /* \"#utility.yul\":1330:1339   */\n  dup3\n    /* \"#utility.yul\":1311:1408   */\n  tag_11\n  jump\t// in\ntag_37:\n    /* \"#utility.yul\":1429:1468   */\n  tag_38\n    /* \"#utility.yul\":1459:1467   */\n  dup7\n    /* \"#utility.yul\":1448:1457   */\n  dup4\n    /* \"#utility.yul\":1429:1468   */\n  tag_11\n  jump\t// in\ntag_38:\n    /* \"#utility.yul\":1417:1468   */\n  swap6\n  pop\n    /* \"#utility.yul\":1501:1505   */\n  dup1\n    /* \"#utility.yul\":1497:1506   */\n  not\n    /* \"#utility.yul\":1490:1495   */\n  dup5\n    /* \"#utility.yul\":1486:1507   */\n  and\n    /* \"#utility.yul\":1477:1507   */\n  swap4\n  pop\n    /* \"#utility.yul\":1550:1554   */\n  dup1\n    /* \"#utility.yul\":1540:1548   */\n  dup7\n    /* \"#utility.yul\":1536:1555   */\n  and\n    /* \"#utility.yul\":1529:1534   */\n  dup5\n    /* \"#utility.yul\":1526:1556   */\n  or\n    /* \"#utility.yul\":1516:1556   */\n  swap3\n  pop\n    /* \"#utility.yul\":1245:1562   */\n  pop\n  pop\n    /* \"#utility.yul\":1169:1562   */\n  swap4\n  swap3\n  pop\n  pop\n  pop\n  jump\t// out\n    /* \"#utility.yul\":1568:1645   */\ntag_13:\n    /* \"#utility.yul\":1605:1612   */\n  0x00\n    /* \"#utility.yul\":1634:1639   */\n  dup2\n    /* \"#utility.yul\":1623:1639   */\n  swap1\n  pop\n    /* \"#utility.yul\":1568:1645   */\n  swap2\n  swap1\n  pop\n  jump\t// out\n    /* \"#utility.yul\":1651:1711   */\ntag_14:\n    /* \"#utility.yul\":1679:1682   */\n  0x00\n    /* \"#utility.yul\":1700:1705   */\n  dup2\n    /* \"#utility.yul\":1693:1705   */\n  swap1\n  pop\n    /* \"#utility.yul\":1651:1711   */\n  swap2\n  swap1\n  pop\n  jump\t// out\n    /* \"#utility.yul\":1717:1859   */\ntag_15:\n    /* \"#utility.yul\":1767:1776   */\n  0x00\n    /* \"#utility.yul\":1800:1853   */\n  tag_42\n    /* \"#utility.yul\":1818:1852   */\n  tag_43\n    /* \"#utility.yul\":1827:1851   */\n  tag_44\n    /* \"#utility.yul\":1845:1850   */\n  dup5\n    /* \"#utility.yul\":1827:1851   */\n  tag_13\n  jump\t// in\ntag_44:\n    /* \"#utility.yul\":1818:1852   */\n  tag_14\n  jump\t// in\ntag_43:\n    /* \"#utility.yul\":1800:1853   */\n  tag_13\n  jump\t// in\ntag_42:\n    /* \"#utility.yul\":1787:1853   */\n  swap1\n  pop\n    /* \"#utility.yul\":1717:1859   */\n  swap2\n  swap1\n  pop\n  jump\t// out\n    /* \"#utility.yul\":1865:1940   */\ntag_16:\n    /* \"#utility.yul\":1908:1911   */\n  0x00\n    /* \"#utility.yul\":1929:1934   */\n  dup2\n    /* \"#utility.yul\":1922:1934   */\n  swap1\n  pop\n    /* \"#utility.yul\":1865:1940   */\n  swap2\n  swap1\n  pop\n  jump\t// out\n    /* \"#utility.yul\":1946:2215   */\ntag_17:\n    /* \"#utility.yul\":2056:2095   */\n  tag_47\n    /* \"#utility.yul\":2087:2094   */\n  dup4\n    /* \"#utility.yul\":2056:2095   */\n  tag_15\n  jump\t// in\ntag_47:\n    /* \"#utility.yul\":2117:2208   */\n  tag_48\n    /* \"#utility.yul\":2166:2207   */\n  tag_49\n    /* \"#utility.yul\":2190:2206   */\n  dup3\n    /* \"#utility.yul\":2166:2207   */\n  tag_16\n  jump\t// in\ntag_49:\n    /* \"#utility.yul\":2158:2164   */\n  dup5\n    /* \"#utility.yul\":2151:2155   */\n  dup5\n    /* \"#utility.yul\":2145:2156   */\n  sload\n    /* \"#utility.yul\":2117:2208   */\n  tag_12\n  jump\t// in\ntag_48:\n    /* \"#utility.yul\":2111:2115   */\n  dup3\n    /* \"#utility.yul\":2104:2209   */\n  sstore\n    /* \"#utility.yul\":2022:2215   */\n  pop\n    /* \"#utility.yul\":1946:2215   */\n  pop\n  pop\n  pop\n  jump\t// out\n    /* \"#utility.yul\":2221:2294   */\ntag_18:\n    /* \"#utility.yul\":2266:2269   */\n  0x00\n    /* \"#utility.yul\":2287:2288   */\n  0x00\n    /* \"#utility.yul\":2280:2288   */\n  swap1\n  pop\n    /* \"#utility.yul\":2221:2294   */\n  swap1\n  jump\t// out\n    /* \"#utility.yul\":2300:2489   */\ntag_19:\n    /* \"#utility.yul\":2377:2409   */\n  tag_52\n  tag_18\n  jump\t// in\ntag_52:\n    /* \"#utility.yul\":2418:2483   */\n  tag_53\n    /* \"#utility.yul\":2476:2482   */\n  dup2\n    /* \"#utility.yul\":2468:2474   */\n  dup5\n    /* \"#utility.yul\":2462:2466   */\n  dup5\n    /* \"#utility.yul\":2418:2483   */\n  tag_17\n  jump\t// in\ntag_53:\n    /* \"#utility.yul\":2353:2489   */\n  pop\n    /* \"#utility.yul\":2300:2489   */\n  pop\n  pop\n  jump\t// out\n    /* \"#utility.yul\":2495:2681   */\ntag_20:\n    /* \"#utility.yul\":2555:2675   */\ntag_55:\n    /* \"#utility.yul\":2572:2575   */\n  dup2\n    /* \"#utility.yul\":2565:2570   */\n  dup2\n    /* \"#utility.yul\":2562:2576   */\n  lt\n    /* \"#utility.yul\":2555:2675   */\n  iszero\n  tag_57\n  jumpi\n    /* \"#utility.yul\":2626:2665   */\n  tag_58\n    /* \"#utility.yul\":2663:2664   */\n  0x00\n    /* \"#utility.yul\":2656:2661   */\n  dup3\n    /* \"#utility.yul\":2626:2665   */\n  tag_19\n  jump\t// in\ntag_58:\n    /* \"#utility.yul\":2599:2600   */\n  0x01\n    /* \"#utility.yul\":2592:2597   */\n  dup2\n    /* \"#utility.yul\":2588:2601   */\n  add\n    /* \"#utility.yul\":2579:2601   */\n  swap1\n  pop\n    /* \"#utility.yul\":2555:2675   */\n  jump(tag_55)\ntag_57:\n    /* \"#utility.yul\":2495:2681   */\n  pop\n  pop\n  jump\t// out\n    /* \"#utility.yul\":2687:3230   */\ntag_21:\n    /* \"#utility.yul\":2788:2790   */\n  0x1f\n    /* \"#utility.yul\":2783:2786   */\n  dup3\n    /* \"#utility.yul\":2780:2791   */\n  gt\n    /* \"#utility.yul\":2777:3223   */\n  iszero\n  tag_60\n  jumpi\n    /* \"#utility.yul\":2822:2860   */\n  tag_61\n    /* \"#utility.yul\":2854:2859   */\n  dup2\n    /* \"#utility.yul\":2822:2860   */\n  tag_9\n  jump\t// in\ntag_61:\n    /* \"#utility.yul\":2906:2935   */\n  tag_62\n    /* \"#utility.yul\":2924:2934   */\n  dup5\n    /* \"#utility.yul\":2906:2935   */\n  tag_10\n  jump\t// in\ntag_62:\n    /* \"#utility.yul\":2896:2904   */\n  dup2\n    /* \"#utility.yul\":2892:2936   */\n  add\n    /* \"#utility.yul\":3089:3091   */\n  0x20\n    /* \"#utility.yul\":3077:3087   */\n  dup6\n    /* \"#utility.yul\":3074:3092   */\n  lt\n    /* \"#utility.yul\":3071:3120   */\n  iszero\n  tag_63\n  jumpi\n    /* \"#utility.yul\":3110:3118   */\n  dup2\n    /* \"#utility.yul\":3095:3118   */\n  swap1\n  pop\n    /* \"#utility.yul\":3071:3120   */\ntag_63:\n    /* \"#utility.yul\":3133:3213   */\n  tag_64\n    /* \"#utility.yul\":3189:3211   */\n  tag_65\n    /* \"#utility.yul\":3207:3210   */\n  dup6\n    /* \"#utility.yul\":3189:3211   */\n  tag_10\n  jump\t// in\ntag_65:\n    /* \"#utility.yul\":3179:3187   */\n  dup4\n    /* \"#utility.yul\":3175:3212   */\n  add\n    /* \"#utility.yul\":3162:3173   */\n  dup3\n    /* \"#utility.yul\":3133:3213   */\n  tag_20\n  jump\t// in\ntag_64:\n    /* \"#utility.yul\":2792:3223   */\n  pop\n  pop\n    /* \"#utility.yul\":2777:3223   */\ntag_60:\n    /* \"#utility.yul\":2687:3230   */\n  pop\n  pop\n  pop\n  jump\t// out\n    /* \"#utility.yul\":3236:3353   */\ntag_22:\n    /* \"#utility.yul\":3290:3298   */\n  0x00\n    /* \"#utility.yul\":3340:3345   */\n  dup3\n    /* \"#utility.yul\":3334:3338   */\n  dup3\n    /* \"#utility.yul\":3330:3346   */\n  shr\n    /* \"#utility.yul\":3309:3346   */\n  swap1\n  pop\n    /* \"#utility.yul\":3236:3353   */\n  swap3\n  swap2\n  pop\n  pop\n  jump\t// out\n    /* \"#utility.yul\":3359:3528   */\ntag_23:\n    /* \"#utility.yul\":3403:3409   */\n  0x00\n    /* \"#utility.yul\":3436:3487   */\n  tag_68\n    /* \"#utility.yul\":3484:3485   */\n  0x00\n    /* \"#utility.yul\":3480:3486   */\n  not\n    /* \"#utility.yul\":3472:3477   */\n  dup5\n    /* \"#utility.yul\":3469:3470   */\n  0x08\n    /* \"#utility.yul\":3465:3478   */\n  mul\n    /* \"#utility.yul\":3436:3487   */\n  tag_22\n  jump\t// in\ntag_68:\n    /* \"#utility.yul\":3432:3488   */\n  not\n    /* \"#utility.yul\":3517:3521   */\n  dup1\n    /* \"#utility.yul\":3511:3515   */\n  dup4\n    /* \"#utility.yul\":3507:3522   */\n  and\n    /* \"#utility.yul\":3497:3522   */\n  swap2\n  pop\n    /* \"#utility.yul\":3410:3528   */\n  pop\n    /* \"#utility.yul\":3359:3528   */\n  swap3\n  swap2\n  pop\n  pop\n  jump\t// out\n    /* \"#utility.yul\":3533:3828   */\ntag_24:\n    /* \"#utility.yul\":3609:3613   */\n  0x00\n    /* \"#utility.yul\":3755:3784   */\n  tag_70\n    /* \"#utility.yul\":3780:3783   */\n  dup4\n    /* \"#utility.yul\":3774:3778   */\n  dup4\n    /* \"#utility.yul\":3755:3784   */\n  tag_23\n  jump\t// in\ntag_70:\n    /* \"#utility.yul\":3747:3784   */\n  swap2\n  pop\n    /* \"#utility.yul\":3817:3820   */\n  dup3\n    /* \"#utility.yul\":3814:3815   */\n  0x02\n    /* \"#utility.yul\":3810:3821   */\n  mul\n    /* \"#utility.yul\":3804:3808   */\n  dup3\n    /* \"#utility.yul\":3801:3822   */\n  or\n    /* \"#utility.yul\":3793:3822   */\n  swap1\n  pop\n    /* \"#utility.yul\":3533:3828   */\n  swap3\n  swap2\n  pop\n  pop\n  jump\t// out\n    /* \"#utility.yul\":3833:5228   */\ntag_2:\n    /* \"#utility.yul\":3950:3987   */\n  tag_72\n    /* \"#utility.yul\":3983:3986   */\n  dup3\n    /* \"#utility.yul\":3950:3987   */\n  tag_5\n  jump\t// in\ntag_72:\n    /* \"#utility.yul\":4052:4070   */\n  0xffffffffffffffff\n    /* \"#utility.yul\":4044:4050   */\n  dup2\n    /* \"#utility.yul\":4041:4071   */\n  gt\n    /* \"#utility.yul\":4038:4094   */\n  iszero\n  tag_73\n  jumpi\n    /* \"#utility.yul\":4074:4092   */\n  tag_74\n  tag_6\n  jump\t// in\ntag_74:\n    /* \"#utility.yul\":4038:4094   */\ntag_73:\n    /* \"#utility.yul\":4118:4156   */\n  tag_75\n    /* \"#utility.yul\":4150:4154   */\n  dup3\n    /* \"#utility.yul\":4144:4155   */\n  sload\n    /* \"#utility.yul\":4118:4156   */\n  tag_8\n  jump\t// in\ntag_75:\n    /* \"#utility.yul\":4203:4270   */\n  tag_76\n    /* \"#utility.yul\":4263:4269   */\n  dup3\n    /* \"#utility.yul\":4255:4261   */\n  dup3\n    /* \"#utility.yul\":4249:4253   */\n  dup6\n    /* \"#utility.yul\":4203:4270   */\n  tag_21\n  jump\t// in\ntag_76:\n    /* \"#utility.yul\":4297:4298   */\n  0x00\n    /* \"#utility.yul\":4321:4325   */\n  0x20\n    /* \"#utility.yul\":4308:4325   */\n  swap1\n  pop\n    /* \"#utility.yul\":4353:4355   */\n  0x1f\n    /* \"#utility.yul\":4345:4351   */\n  dup4\n    /* \"#utility.yul\":4342:4356   */\n  gt\n    /* \"#utility.yul\":4370:4371   */\n  0x01\n    /* \"#utility.yul\":4365:4983   */\n  dup2\n  eq\n  tag_78\n  jumpi\n    /* \"#utility.yul\":5027:5028   */\n  0x00\n    /* \"#utility.yul\":5044:5050   */\n  dup5\n    /* \"#utility.yul\":5041:5118   */\n  iszero\n  tag_79\n  jumpi\n    /* \"#utility.yul\":5093:5102   */\n  dup3\n    /* \"#utility.yul\":5088:5091   */\n  dup8\n    /* \"#utility.yul\":5084:5103   */\n  add\n    /* \"#utility.yul\":5078:5104   */\n  mload\n    /* \"#utility.yul\":5069:5104   */\n  swap1\n  pop\n    /* \"#utility.yul\":5041:5118   */\ntag_79:\n    /* \"#utility.yul\":5144:5211   */\n  tag_80\n    /* \"#utility.yul\":5204:5210   */\n  dup6\n    /* \"#utility.yul\":5197:5202   */\n  dup3\n    /* \"#utility.yul\":5144:5211   */\n  tag_24\n  jump\t// in\ntag_80:\n    /* \"#utility.yul\":5138:5142   */\n  dup7\n    /* \"#utility.yul\":5131:5212   */\n  sstore\n    /* \"#utility.yul\":5000:5222   */\n  pop\n    /* \"#utility.yul\":4335:5222   */\n  jump(tag_77)\n    /* \"#utility.yul\":4365:4983   */\ntag_78:\n    /* \"#utility.yul\":4417:4421   */\n  0x1f\n    /* \"#utility.yul\":4413:4422   */\n  not\n    /* \"#utility.yul\":4405:4411   */\n  dup5\n    /* \"#utility.yul\":4401:4423   */\n  and\n    /* \"#utility.yul\":4451:4488   */\n  tag_81\n    /* \"#utility.yul\":4483:4487   */\n  dup7\n    /* \"#utility.yul\":4451:4488   */\n  tag_9\n  jump\t// in\ntag_81:\n    /* \"#utility.yul\":4510:4511   */\n  0x00\n    /* \"#utility.yul\":4524:4732   */\ntag_82:\n    /* \"#utility.yul\":4538:4545   */\n  dup3\n    /* \"#utility.yul\":4535:4536   */\n  dup2\n    /* \"#utility.yul\":4532:4546   */\n  lt\n    /* \"#utility.yul\":4524:4732   */\n  iszero\n  tag_84\n  jumpi\n    /* \"#utility.yul\":4617:4626   */\n  dup5\n    /* \"#utility.yul\":4612:4615   */\n  dup10\n    /* \"#utility.yul\":4608:4627   */\n  add\n    /* \"#utility.yul\":4602:4628   */\n  mload\n    /* \"#utility.yul\":4594:4600   */\n  dup3\n    /* \"#utility.yul\":4587:4629   */\n  sstore\n    /* \"#utility.yul\":4668:4669   */\n  0x01\n    /* \"#utility.yul\":4660:4666   */\n  dup3\n    /* \"#utility.yul\":4656:4670   */\n  add\n    /* \"#utility.yul\":4646:4670   */\n  swap2\n  pop\n    /* \"#utility.yul\":4715:4717   */\n  0x20\n    /* \"#utility.yul\":4704:4713   */\n  dup6\n    /* \"#utility.yul\":4700:4718   */\n  add\n    /* \"#utility.yul\":4687:4718   */\n  swap5\n  pop\n    /* \"#utility.yul\":4561:4565   */\n  0x20\n    /* \"#utility.yul\":4558:4559   */\n  dup2\n    /* \"#utility.yul\":4554:4566   */\n  add\n    /* \"#utility.yul\":4549:4566   */\n  swap1\n  pop\n    /* \"#utility.yul\":4524:4732   */\n  jump(tag_82)\ntag_84:\n    /* \"#utility.yul\":4760:4766   */\n  dup7\n    /* \"#utility.yul\":4751:4758   */\n  dup4\n    /* \"#utility.yul\":4748:4767   */\n  lt\n    /* \"#utility.yul\":4745:4924   */\n  iszero\n  tag_85\n  jumpi\n    /* \"#utility.yul\":4818:4827   */\n  dup5\n    /* \"#utility.yul\":4813:4816   */\n  dup10\n    /* \"#utility.yul\":4809:4828   */\n  add\n    /* \"#utility.yul\":4803:4829   */\n  mload\n    /* \"#utility.yul\":4861:4909   */\n  tag_86\n    /* \"#utility.yul\":4903:4907   */\n  0x1f\n    /* \"#utility.yul\":4895:4901   */\n  dup10\n    /* \"#utility.yul\":4891:4908   */\n  and\n    /* \"#utility.yul\":4880:4889   */\n  dup3\n    /* \"#utility.yul\":4861:4909   */\n  tag_23\n  jump\t// in\ntag_86:\n    /* \"#utility.yul\":4853:4859   */\n  dup4\n    /* \"#utility.yul\":4846:4910   */\n  sstore\n    /* \"#utility.yul\":4768:4924   */\n  pop\n    /* \"#utility.yul\":4745:4924   */\ntag_85:\n    /* \"#utility.yul\":4970:4971   */\n  0x01\n    /* \"#utility.yul\":4966:4967   */\n  0x02\n    /* \"#utility.yul\":4958:4964   */\n  dup9\n    /* \"#utility.yul\":4954:4968   */\n  mul\n    /* \"#utility.yul\":4950:4972   */\n  add\n    /* \"#utility.yul\":4944:4948   */\n  dup9\n    /* \"#utility.yul\":4937:4973   */\n  sstore\n    /* \"#utility.yul\":4372:4983   */\n  pop\n  pop\n  pop\n    /* \"#utility.yul\":4335:5222   */\ntag_77:\n  pop\n    /* \"#utility.yul\":3925:5228   */\n  pop\n  pop\n  pop\n    /* \"#utility.yul\":3833:5228   */\n  pop\n  pop\n  jump\t// out\n    /* \"FirstStorage.sol\":132:2646  contract FirstStorage {... */\ntag_4:\n  dataSize(sub_0)\n  dup1\n  dataOffset(sub_0)\n  0x00\n  codecopy\n  0x00\n  return\nstop\n\nsub_0: assembly {\n        /* \"FirstStorage.sol\":132:2646  contract FirstStorage {... */\n      mstore(0x40, 0x80)\n      callvalue\n      dup1\n      iszero\n      tag_1\n      jumpi\n      revert(0x00, 0x00)\n    tag_1:\n      pop\n      jumpi(tag_2, lt(calldatasize, 0x04))\n      shr(0xe0, calldataload(0x00))\n      dup1\n      0xdd4e9747\n      gt\n      tag_11\n      jumpi\n      dup1\n      0xdd4e9747\n      eq\n      tag_7\n      jumpi\n      dup1\n      0xe1fd72ab\n      eq\n      tag_8\n      jumpi\n      dup1\n      0xe302418a\n      eq\n      tag_9\n      jumpi\n      dup1\n      0xfb7ec44f\n      eq\n      tag_10\n      jumpi\n      jump(tag_2)\n    tag_11:\n      dup1\n      0x063cfccb\n      eq\n      tag_3\n      jumpi\n      dup1\n      0x0a5eecd7\n      eq\n      tag_4\n      jumpi\n      dup1\n      0x478416f6\n      eq\n      tag_5\n      jumpi\n      dup1\n      0x7245e7f5\n      eq\n      tag_6\n      jumpi\n    tag_2:\n      revert(0x00, 0x00)\n        /* \"FirstStorage.sol\":1188:1503  function storeName(string memory _name) public{... */\n    tag_3:\n      tag_12\n      0x04\n      dup1\n      calldatasize\n      sub\n      dup2\n      add\n      swap1\n      tag_13\n      swap2\n      swap1\n      tag_14\n      jump\t// in\n    tag_13:\n      tag_15\n      jump\t// in\n    tag_12:\n      stop\n        /* \"FirstStorage.sol\":1817:1911  function retrieveName () public view returns (string memory){... */\n    tag_4:\n      tag_16\n      tag_17\n      jump\t// in\n    tag_16:\n      mload(0x40)\n      tag_18\n      swap2\n      swap1\n      tag_19\n      jump\t// in\n    tag_18:\n      mload(0x40)\n      dup1\n      swap2\n      sub\n      swap1\n      return\n        /* \"FirstStorage.sol\":1111:1182  function storeID(uint _userID) public {... */\n    tag_5:\n      tag_20\n      0x04\n      dup1\n      calldatasize\n      sub\n      dup2\n      add\n      swap1\n      tag_21\n      swap2\n      swap1\n      tag_22\n      jump\t// in\n    tag_21:\n      tag_23\n      jump\t// in\n    tag_20:\n      stop\n        /* \"FirstStorage.sol\":925:969  mapping(string => bool) public nameToIsAdmin */\n    tag_6:\n      tag_24\n      0x04\n      dup1\n      calldatasize\n      sub\n      dup2\n      add\n      swap1\n      tag_25\n      swap2\n      swap1\n      tag_14\n      jump\t// in\n    tag_25:\n      tag_26\n      jump\t// in\n    tag_24:\n      mload(0x40)\n      tag_27\n      swap2\n      swap1\n      tag_28\n      jump\t// in\n    tag_27:\n      mload(0x40)\n      dup1\n      swap2\n      sub\n      swap1\n      return\n        /* \"FirstStorage.sol\":2335:2642  function addPerson(uint256 _id, string memory _name, bool _isAdmin) public{... */\n    tag_7:\n      tag_29\n      0x04\n      dup1\n      calldatasize\n      sub\n      dup2\n      add\n      swap1\n      tag_30\n      swap2\n      swap1\n      tag_31\n      jump\t// in\n    tag_30:\n      tag_32\n      jump\t// in\n    tag_29:\n      stop\n        /* \"FirstStorage.sol\":761:831  Person public Gustav = Person({id:10, name:\"Gustavium\", isAdmin:true}) */\n    tag_8:\n      tag_33\n      tag_34\n      jump\t// in\n    tag_33:\n      mload(0x40)\n      tag_35\n      swap4\n      swap3\n      swap2\n      swap1\n      tag_36\n      jump\t// in\n    tag_35:\n      mload(0x40)\n      dup1\n      swap2\n      sub\n      swap1\n      return\n        /* \"FirstStorage.sol\":442:460  uint public userID */\n    tag_9:\n      tag_37\n      tag_38\n      jump\t// in\n    tag_37:\n      mload(0x40)\n      tag_39\n      swap2\n      swap1\n      tag_40\n      jump\t// in\n    tag_39:\n      mload(0x40)\n      dup1\n      swap2\n      sub\n      swap1\n      return\n        /* \"FirstStorage.sol\":870:897  Person[] public personsInDB */\n    tag_10:\n      tag_41\n      0x04\n      dup1\n      calldatasize\n      sub\n      dup2\n      add\n      swap1\n      tag_42\n      swap2\n      swap1\n      tag_22\n      jump\t// in\n    tag_42:\n      tag_43\n      jump\t// in\n    tag_41:\n      mload(0x40)\n      tag_44\n      swap4\n      swap3\n      swap2\n      swap1\n      tag_36\n      jump\t// in\n    tag_44:\n      mload(0x40)\n      dup1\n      swap2\n      sub\n      swap1\n      return\n        /* \"FirstStorage.sol\":1188:1503  function storeName(string memory _name) public{... */\n    tag_15:\n        /* \"FirstStorage.sol\":1255:1260  _name */\n      dup1\n        /* \"FirstStorage.sol\":1244:1252  userName */\n      0x06\n        /* \"FirstStorage.sol\":1244:1260  userName = _name */\n      swap1\n      dup2\n      tag_46\n      swap2\n      swap1\n      tag_47\n      jump\t// in\n    tag_46:\n      pop\n        /* \"FirstStorage.sol\":1482:1496  retrieveName() */\n      tag_48\n        /* \"FirstStorage.sol\":1482:1494  retrieveName */\n      tag_17\n        /* \"FirstStorage.sol\":1482:1496  retrieveName() */\n      jump\t// in\n    tag_48:\n      pop\n        /* \"FirstStorage.sol\":1188:1503  function storeName(string memory _name) public{... */\n      pop\n      jump\t// out\n        /* \"FirstStorage.sol\":1817:1911  function retrieveName () public view returns (string memory){... */\n    tag_17:\n        /* \"FirstStorage.sol\":1863:1876  string memory */\n      0x60\n        /* \"FirstStorage.sol\":1895:1903  userName */\n      0x06\n        /* \"FirstStorage.sol\":1888:1903  return userName */\n      dup1\n      sload\n      tag_50\n      swap1\n      tag_51\n      jump\t// in\n    tag_50:\n      dup1\n      0x1f\n      add\n      0x20\n      dup1\n      swap2\n      div\n      mul\n      0x20\n      add\n      mload(0x40)\n      swap1\n      dup2\n      add\n      0x40\n      mstore\n      dup1\n      swap3\n      swap2\n      swap1\n      dup2\n      dup2\n      mstore\n      0x20\n      add\n      dup3\n      dup1\n      sload\n      tag_52\n      swap1\n      tag_51\n      jump\t// in\n    tag_52:\n      dup1\n      iszero\n      tag_53\n      jumpi\n      dup1\n      0x1f\n      lt\n      tag_54\n      jumpi\n      0x0100\n      dup1\n      dup4\n      sload\n      div\n      mul\n      dup4\n      mstore\n      swap2\n      0x20\n      add\n      swap2\n      jump(tag_53)\n    tag_54:\n      dup3\n      add\n      swap2\n      swap1\n      0x00\n      mstore\n      keccak256(0x00, 0x20)\n      swap1\n    tag_55:\n      dup2\n      sload\n      dup2\n      mstore\n      swap1\n      0x01\n      add\n      swap1\n      0x20\n      add\n      dup1\n      dup4\n      gt\n      tag_55\n      jumpi\n      dup3\n      swap1\n      sub\n      0x1f\n      and\n      dup3\n      add\n      swap2\n    tag_53:\n      pop\n      pop\n      pop\n      pop\n      pop\n      swap1\n      pop\n        /* \"FirstStorage.sol\":1817:1911  function retrieveName () public view returns (string memory){... */\n      swap1\n      jump\t// out\n        /* \"FirstStorage.sol\":1111:1182  function storeID(uint _userID) public {... */\n    tag_23:\n        /* \"FirstStorage.sol\":1168:1175  _userID */\n      dup1\n        /* \"FirstStorage.sol\":1159:1165  userID */\n      0x00\n        /* \"FirstStorage.sol\":1159:1175  userID = _userID */\n      dup2\n      swap1\n      sstore\n      pop\n        /* \"FirstStorage.sol\":1111:1182  function storeID(uint _userID) public {... */\n      pop\n      jump\t// out\n        /* \"FirstStorage.sol\":925:969  mapping(string => bool) public nameToIsAdmin */\n    tag_26:\n      0x07\n      dup2\n      dup1\n      mload\n      0x20\n      dup2\n      add\n      dup3\n      add\n      dup1\n      mload\n      dup5\n      dup3\n      mstore\n      0x20\n      dup4\n      add\n      0x20\n      dup6\n      add\n      keccak256\n      dup2\n      dup4\n      mstore\n      dup1\n      swap6\n      pop\n      pop\n      pop\n      pop\n      pop\n      pop\n      0x00\n      swap2\n      pop\n      sload\n      swap1\n      0x0100\n      exp\n      swap1\n      div\n      0xff\n      and\n      dup2\n      jump\t// out\n        /* \"FirstStorage.sol\":2335:2642  function addPerson(uint256 _id, string memory _name, bool _isAdmin) public{... */\n    tag_32:\n        /* \"FirstStorage.sol\":2528:2539  personsInDB */\n      0x05\n        /* \"FirstStorage.sol\":2545:2591  Person({id:_id, name:_name, isAdmin:_isAdmin}) */\n      mload(0x40)\n      dup1\n      0x60\n      add\n      0x40\n      mstore\n      dup1\n        /* \"FirstStorage.sol\":2556:2559  _id */\n      dup6\n        /* \"FirstStorage.sol\":2545:2591  Person({id:_id, name:_name, isAdmin:_isAdmin}) */\n      dup2\n      mstore\n      0x20\n      add\n        /* \"FirstStorage.sol\":2566:2571  _name */\n      dup5\n        /* \"FirstStorage.sol\":2545:2591  Person({id:_id, name:_name, isAdmin:_isAdmin}) */\n      dup2\n      mstore\n      0x20\n      add\n        /* \"FirstStorage.sol\":2581:2589  _isAdmin */\n      dup4\n        /* \"FirstStorage.sol\":2545:2591  Person({id:_id, name:_name, isAdmin:_isAdmin}) */\n      iszero\n      iszero\n      dup2\n      mstore\n      pop\n        /* \"FirstStorage.sol\":2528:2592  personsInDB.push(Person({id:_id, name:_name, isAdmin:_isAdmin})) */\n      swap1\n      dup1\n      0x01\n      dup2\n      sload\n      add\n      dup1\n      dup3\n      sstore\n      dup1\n      swap2\n      pop\n      pop\n      0x01\n      swap1\n      sub\n      swap1\n      0x00\n      mstore\n      keccak256(0x00, 0x20)\n      swap1\n      0x03\n      mul\n      add\n      0x00\n      swap1\n      swap2\n      swap1\n      swap2\n      swap1\n      swap2\n      pop\n      0x00\n      dup3\n      add\n      mload\n      dup2\n      0x00\n      add\n      sstore\n      0x20\n      dup3\n      add\n      mload\n      dup2\n      0x01\n      add\n      swap1\n      dup2\n      tag_59\n      swap2\n      swap1\n      tag_47\n      jump\t// in\n    tag_59:\n      pop\n      0x40\n      dup3\n      add\n      mload\n      dup2\n      0x02\n      add\n      exp(0x0100, 0x00)\n      dup2\n      sload\n      dup2\n      0xff\n      mul\n      not\n      and\n      swap1\n      dup4\n      iszero\n      iszero\n      mul\n      or\n      swap1\n      sstore\n      pop\n      pop\n      pop\n        /* \"FirstStorage.sol\":2626:2634  _isAdmin */\n      dup1\n        /* \"FirstStorage.sol\":2603:2616  nameToIsAdmin */\n      0x07\n        /* \"FirstStorage.sol\":2617:2622  _name */\n      dup4\n        /* \"FirstStorage.sol\":2603:2623  nameToIsAdmin[_name] */\n      mload(0x40)\n      tag_60\n      swap2\n      swap1\n      tag_61\n      jump\t// in\n    tag_60:\n      swap1\n      dup2\n      mstore\n      0x20\n      add\n      mload(0x40)\n      dup1\n      swap2\n      sub\n      swap1\n      keccak256\n      0x00\n        /* \"FirstStorage.sol\":2603:2634  nameToIsAdmin[_name] = _isAdmin */\n      0x0100\n      exp\n      dup2\n      sload\n      dup2\n      0xff\n      mul\n      not\n      and\n      swap1\n      dup4\n      iszero\n      iszero\n      mul\n      or\n      swap1\n      sstore\n      pop\n        /* \"FirstStorage.sol\":2335:2642  function addPerson(uint256 _id, string memory _name, bool _isAdmin) public{... */\n      pop\n      pop\n      pop\n      jump\t// out\n        /* \"FirstStorage.sol\":761:831  Person public Gustav = Person({id:10, name:\"Gustavium\", isAdmin:true}) */\n    tag_34:\n      0x02\n      dup1\n      0x00\n      add\n      sload\n      swap1\n      dup1\n      0x01\n      add\n      dup1\n      sload\n      tag_62\n      swap1\n      tag_51\n      jump\t// in\n    tag_62:\n      dup1\n      0x1f\n      add\n      0x20\n      dup1\n      swap2\n      div\n      mul\n      0x20\n      add\n      mload(0x40)\n      swap1\n      dup2\n      add\n      0x40\n      mstore\n      dup1\n      swap3\n      swap2\n      swap1\n      dup2\n      dup2\n      mstore\n      0x20\n      add\n      dup3\n      dup1\n      sload\n      tag_63\n      swap1\n      tag_51\n      jump\t// in\n    tag_63:\n      dup1\n      iszero\n      tag_64\n      jumpi\n      dup1\n      0x1f\n      lt\n      tag_65\n      jumpi\n      0x0100\n      dup1\n      dup4\n      sload\n      div\n      mul\n      dup4\n      mstore\n      swap2\n      0x20\n      add\n      swap2\n      jump(tag_64)\n    tag_65:\n      dup3\n      add\n      swap2\n      swap1\n      0x00\n      mstore\n      keccak256(0x00, 0x20)\n      swap1\n    tag_66:\n      dup2\n      sload\n      dup2\n      mstore\n      swap1\n      0x01\n      add\n      swap1\n      0x20\n      add\n      dup1\n      dup4\n      gt\n      tag_66\n      jumpi\n      dup3\n      swap1\n      sub\n      0x1f\n      and\n      dup3\n      add\n      swap2\n    tag_64:\n      pop\n      pop\n      pop\n      pop\n      pop\n      swap1\n      dup1\n      0x02\n      add\n      0x00\n      swap1\n      sload\n      swap1\n      0x0100\n      exp\n      swap1\n      div\n      0xff\n      and\n      swap1\n      pop\n      dup4\n      jump\t// out\n        /* \"FirstStorage.sol\":442:460  uint public userID */\n    tag_38:\n      sload(0x00)\n      dup2\n      jump\t// out\n        /* \"FirstStorage.sol\":870:897  Person[] public personsInDB */\n    tag_43:\n      0x05\n      dup2\n      dup2\n      sload\n      dup2\n      lt\n      tag_67\n      jumpi\n      0x00\n      dup1\n      revert\n    tag_67:\n      swap1\n      0x00\n      mstore\n      keccak256(0x00, 0x20)\n      swap1\n      0x03\n      mul\n      add\n      0x00\n      swap2\n      pop\n      swap1\n      pop\n      dup1\n      0x00\n      add\n      sload\n      swap1\n      dup1\n      0x01\n      add\n      dup1\n      sload\n      tag_69\n      swap1\n      tag_51\n      jump\t// in\n    tag_69:\n      dup1\n      0x1f\n      add\n      0x20\n      dup1\n      swap2\n      div\n      mul\n      0x20\n      add\n      mload(0x40)\n      swap1\n      dup2\n      add\n      0x40\n      mstore\n      dup1\n      swap3\n      swap2\n      swap1\n      dup2\n      dup2\n      mstore\n      0x20\n      add\n      dup3\n      dup1\n      sload\n      tag_70\n      swap1\n      tag_51\n      jump\t// in\n    tag_70:\n      dup1\n      iszero\n      tag_71\n      jumpi\n      dup1\n      0x1f\n      lt\n      tag_72\n      jumpi\n      0x0100\n      dup1\n      dup4\n      sload\n      div\n      mul\n      dup4\n      mstore\n      swap2\n      0x20\n      add\n      swap2\n      jump(tag_71)\n    tag_72:\n      dup3\n      add\n      swap2\n      swap1\n      0x00\n      mstore\n      keccak256(0x00, 0x20)\n      swap1\n    tag_73:\n      dup2\n      sload\n      dup2\n      mstore\n      swap1\n      0x01\n      add\n      swap1\n      0x20\n      add\n      dup1\n      dup4\n      gt\n      tag_73\n      jumpi\n      dup3\n      swap1\n      sub\n      0x1f\n      and\n      dup3\n      add\n      swap2\n    tag_71:\n      pop\n      pop\n      pop\n      pop\n      pop\n      swap1\n      dup1\n      0x02\n      add\n      0x00\n      swap1\n      sload\n      swap1\n      0x0100\n      exp\n      swap1\n      div\n      0xff\n      and\n      swap1\n      pop\n      dup4\n      jump\t// out\n        /* \"#utility.yul\":7:82   */\n    tag_74:\n        /* \"#utility.yul\":40:46   */\n      0x00\n        /* \"#utility.yul\":73:75   */\n      0x40\n        /* \"#utility.yul\":67:76   */\n      mload\n        /* \"#utility.yul\":57:76   */\n      swap1\n      pop\n        /* \"#utility.yul\":7:82   */\n      swap1\n      jump\t// out\n        /* \"#utility.yul\":88:205   */\n    tag_75:\n        /* \"#utility.yul\":197:198   */\n      0x00\n        /* \"#utility.yul\":194:195   */\n      0x00\n        /* \"#utility.yul\":187:199   */\n      revert\n        /* \"#utility.yul\":211:328   */\n    tag_76:\n        /* \"#utility.yul\":320:321   */\n      0x00\n        /* \"#utility.yul\":317:318   */\n      0x00\n        /* \"#utility.yul\":310:322   */\n      revert\n        /* \"#utility.yul\":334:451   */\n    tag_77:\n        /* \"#utility.yul\":443:444   */\n      0x00\n        /* \"#utility.yul\":440:441   */\n      0x00\n        /* \"#utility.yul\":433:445   */\n      revert\n        /* \"#utility.yul\":457:574   */\n    tag_78:\n        /* \"#utility.yul\":566:567   */\n      0x00\n        /* \"#utility.yul\":563:564   */\n      0x00\n        /* \"#utility.yul\":556:568   */\n      revert\n        /* \"#utility.yul\":580:682   */\n    tag_79:\n        /* \"#utility.yul\":621:627   */\n      0x00\n        /* \"#utility.yul\":672:674   */\n      0x1f\n        /* \"#utility.yul\":668:675   */\n      not\n        /* \"#utility.yul\":663:665   */\n      0x1f\n        /* \"#utility.yul\":656:661   */\n      dup4\n        /* \"#utility.yul\":652:666   */\n      add\n        /* \"#utility.yul\":648:676   */\n      and\n        /* \"#utility.yul\":638:676   */\n      swap1\n      pop\n        /* \"#utility.yul\":580:682   */\n      swap2\n      swap1\n      pop\n      jump\t// out\n        /* \"#utility.yul\":688:868   */\n    tag_80:\n        /* \"#utility.yul\":736:813   */\n      0x4e487b7100000000000000000000000000000000000000000000000000000000\n        /* \"#utility.yul\":733:734   */\n      0x00\n        /* \"#utility.yul\":726:814   */\n      mstore\n        /* \"#utility.yul\":833:837   */\n      0x41\n        /* \"#utility.yul\":830:831   */\n      0x04\n        /* \"#utility.yul\":823:838   */\n      mstore\n        /* \"#utility.yul\":857:861   */\n      0x24\n        /* \"#utility.yul\":854:855   */\n      0x00\n        /* \"#utility.yul\":847:862   */\n      revert\n        /* \"#utility.yul\":874:1155   */\n    tag_81:\n        /* \"#utility.yul\":957:984   */\n      tag_126\n        /* \"#utility.yul\":979:983   */\n      dup3\n        /* \"#utility.yul\":957:984   */\n      tag_79\n      jump\t// in\n    tag_126:\n        /* \"#utility.yul\":949:955   */\n      dup2\n        /* \"#utility.yul\":945:985   */\n      add\n        /* \"#utility.yul\":1087:1093   */\n      dup2\n        /* \"#utility.yul\":1075:1085   */\n      dup2\n        /* \"#utility.yul\":1072:1094   */\n      lt\n        /* \"#utility.yul\":1051:1069   */\n      0xffffffffffffffff\n        /* \"#utility.yul\":1039:1049   */\n      dup3\n        /* \"#utility.yul\":1036:1070   */\n      gt\n        /* \"#utility.yul\":1033:1095   */\n      or\n        /* \"#utility.yul\":1030:1118   */\n      iszero\n      tag_127\n      jumpi\n        /* \"#utility.yul\":1098:1116   */\n      tag_128\n      tag_80\n      jump\t// in\n    tag_128:\n        /* \"#utility.yul\":1030:1118   */\n    tag_127:\n        /* \"#utility.yul\":1138:1148   */\n      dup1\n        /* \"#utility.yul\":1134:1136   */\n      0x40\n        /* \"#utility.yul\":1127:1149   */\n      mstore\n        /* \"#utility.yul\":917:1155   */\n      pop\n        /* \"#utility.yul\":874:1155   */\n      pop\n      pop\n      jump\t// out\n        /* \"#utility.yul\":1161:1290   */\n    tag_82:\n        /* \"#utility.yul\":1195:1201   */\n      0x00\n        /* \"#utility.yul\":1222:1242   */\n      tag_130\n      tag_74\n      jump\t// in\n    tag_130:\n        /* \"#utility.yul\":1212:1242   */\n      swap1\n      pop\n        /* \"#utility.yul\":1251:1284   */\n      tag_131\n        /* \"#utility.yul\":1279:1283   */\n      dup3\n        /* \"#utility.yul\":1271:1277   */\n      dup3\n        /* \"#utility.yul\":1251:1284   */\n      tag_81\n      jump\t// in\n    tag_131:\n        /* \"#utility.yul\":1161:1290   */\n      swap2\n      swap1\n      pop\n      jump\t// out\n        /* \"#utility.yul\":1296:1604   */\n    tag_83:\n        /* \"#utility.yul\":1358:1362   */\n      0x00\n        /* \"#utility.yul\":1448:1466   */\n      0xffffffffffffffff\n        /* \"#utility.yul\":1440:1446   */\n      dup3\n        /* \"#utility.yul\":1437:1467   */\n      gt\n        /* \"#utility.yul\":1434:1490   */\n      iszero\n      tag_133\n      jumpi\n        /* \"#utility.yul\":1470:1488   */\n      tag_134\n      tag_80\n      jump\t// in\n    tag_134:\n        /* \"#utility.yul\":1434:1490   */\n    tag_133:\n        /* \"#utility.yul\":1508:1537   */\n      tag_135\n        /* \"#utility.yul\":1530:1536   */\n      dup3\n        /* \"#utility.yul\":1508:1537   */\n      tag_79\n      jump\t// in\n    tag_135:\n        /* \"#utility.yul\":1500:1537   */\n      swap1\n      pop\n        /* \"#utility.yul\":1592:1596   */\n      0x20\n        /* \"#utility.yul\":1586:1590   */\n      dup2\n        /* \"#utility.yul\":1582:1597   */\n      add\n        /* \"#utility.yul\":1574:1597   */\n      swap1\n      pop\n        /* \"#utility.yul\":1296:1604   */\n      swap2\n      swap1\n      pop\n      jump\t// out\n        /* \"#utility.yul\":1610:1758   */\n    tag_84:\n        /* \"#utility.yul\":1708:1714   */\n      dup3\n        /* \"#utility.yul\":1703:1706   */\n      dup2\n        /* \"#utility.yul\":1698:1701   */\n      dup4\n        /* \"#utility.yul\":1685:1715   */\n      calldatacopy\n        /* \"#utility.yul\":1749:1750   */\n      0x00\n        /* \"#utility.yul\":1740:1746   */\n      dup4\n        /* \"#utility.yul\":1735:1738   */\n      dup4\n        /* \"#utility.yul\":1731:1747   */\n      add\n        /* \"#utility.yul\":1724:1751   */\n      mstore\n        /* \"#utility.yul\":1610:1758   */\n      pop\n      pop\n      pop\n      jump\t// out\n        /* \"#utility.yul\":1764:2189   */\n    tag_85:\n        /* \"#utility.yul\":1842:1847   */\n      0x00\n        /* \"#utility.yul\":1867:1933   */\n      tag_138\n        /* \"#utility.yul\":1883:1932   */\n      tag_139\n        /* \"#utility.yul\":1925:1931   */\n      dup5\n        /* \"#utility.yul\":1883:1932   */\n      tag_83\n      jump\t// in\n    tag_139:\n        /* \"#utility.yul\":1867:1933   */\n      tag_82\n      jump\t// in\n    tag_138:\n        /* \"#utility.yul\":1858:1933   */\n      swap1\n      pop\n        /* \"#utility.yul\":1956:1962   */\n      dup3\n        /* \"#utility.yul\":1949:1954   */\n      dup2\n        /* \"#utility.yul\":1942:1963   */\n      mstore\n        /* \"#utility.yul\":1994:1998   */\n      0x20\n        /* \"#utility.yul\":1987:1992   */\n      dup2\n        /* \"#utility.yul\":1983:1999   */\n      add\n        /* \"#utility.yul\":2032:2035   */\n      dup5\n        /* \"#utility.yul\":2023:2029   */\n      dup5\n        /* \"#utility.yul\":2018:2021   */\n      dup5\n        /* \"#utility.yul\":2014:2030   */\n      add\n        /* \"#utility.yul\":2011:2036   */\n      gt\n        /* \"#utility.yul\":2008:2120   */\n      iszero\n      tag_140\n      jumpi\n        /* \"#utility.yul\":2039:2118   */\n      tag_141\n      tag_78\n      jump\t// in\n    tag_141:\n        /* \"#utility.yul\":2008:2120   */\n    tag_140:\n        /* \"#utility.yul\":2129:2183   */\n      tag_142\n        /* \"#utility.yul\":2176:2182   */\n      dup5\n        /* \"#utility.yul\":2171:2174   */\n      dup3\n        /* \"#utility.yul\":2166:2169   */\n      dup6\n        /* \"#utility.yul\":2129:2183   */\n      tag_84\n      jump\t// in\n    tag_142:\n        /* \"#utility.yul\":1848:2189   */\n      pop\n        /* \"#utility.yul\":1764:2189   */\n      swap4\n      swap3\n      pop\n      pop\n      pop\n      jump\t// out\n        /* \"#utility.yul\":2209:2549   */\n    tag_86:\n        /* \"#utility.yul\":2265:2270   */\n      0x00\n        /* \"#utility.yul\":2314:2317   */\n      dup3\n        /* \"#utility.yul\":2307:2311   */\n      0x1f\n        /* \"#utility.yul\":2299:2305   */\n      dup4\n        /* \"#utility.yul\":2295:2312   */\n      add\n        /* \"#utility.yul\":2291:2318   */\n      slt\n        /* \"#utility.yul\":2281:2403   */\n      tag_144\n      jumpi\n        /* \"#utility.yul\":2322:2401   */\n      tag_145\n      tag_77\n      jump\t// in\n    tag_145:\n        /* \"#utility.yul\":2281:2403   */\n    tag_144:\n        /* \"#utility.yul\":2439:2445   */\n      dup2\n        /* \"#utility.yul\":2426:2446   */\n      calldataload\n        /* \"#utility.yul\":2464:2543   */\n      tag_146\n        /* \"#utility.yul\":2539:2542   */\n      dup5\n        /* \"#utility.yul\":2531:2537   */\n      dup3\n        /* \"#utility.yul\":2524:2528   */\n      0x20\n        /* \"#utility.yul\":2516:2522   */\n      dup7\n        /* \"#utility.yul\":2512:2529   */\n      add\n        /* \"#utility.yul\":2464:2543   */\n      tag_85\n      jump\t// in\n    tag_146:\n        /* \"#utility.yul\":2455:2543   */\n      swap2\n      pop\n        /* \"#utility.yul\":2271:2549   */\n      pop\n        /* \"#utility.yul\":2209:2549   */\n      swap3\n      swap2\n      pop\n      pop\n      jump\t// out\n        /* \"#utility.yul\":2555:3064   */\n    tag_14:\n        /* \"#utility.yul\":2624:2630   */\n      0x00\n        /* \"#utility.yul\":2673:2675   */\n      0x20\n        /* \"#utility.yul\":2661:2670   */\n      dup3\n        /* \"#utility.yul\":2652:2659   */\n      dup5\n        /* \"#utility.yul\":2648:2671   */\n      sub\n        /* \"#utility.yul\":2644:2676   */\n      slt\n        /* \"#utility.yul\":2641:2760   */\n      iszero\n      tag_148\n      jumpi\n        /* \"#utility.yul\":2679:2758   */\n      tag_149\n      tag_75\n      jump\t// in\n    tag_149:\n        /* \"#utility.yul\":2641:2760   */\n    tag_148:\n        /* \"#utility.yul\":2827:2828   */\n      0x00\n        /* \"#utility.yul\":2816:2825   */\n      dup3\n        /* \"#utility.yul\":2812:2829   */\n      add\n        /* \"#utility.yul\":2799:2830   */\n      calldataload\n        /* \"#utility.yul\":2857:2875   */\n      0xffffffffffffffff\n        /* \"#utility.yul\":2849:2855   */\n      dup2\n        /* \"#utility.yul\":2846:2876   */\n      gt\n        /* \"#utility.yul\":2843:2960   */\n      iszero\n      tag_150\n      jumpi\n        /* \"#utility.yul\":2879:2958   */\n      tag_151\n      tag_76\n      jump\t// in\n    tag_151:\n        /* \"#utility.yul\":2843:2960   */\n    tag_150:\n        /* \"#utility.yul\":2984:3047   */\n      tag_152\n        /* \"#utility.yul\":3039:3046   */\n      dup5\n        /* \"#utility.yul\":3030:3036   */\n      dup3\n        /* \"#utility.yul\":3019:3028   */\n      dup6\n        /* \"#utility.yul\":3015:3037   */\n      add\n        /* \"#utility.yul\":2984:3047   */\n      tag_86\n      jump\t// in\n    tag_152:\n        /* \"#utility.yul\":2974:3047   */\n      swap2\n      pop\n        /* \"#utility.yul\":2770:3057   */\n      pop\n        /* \"#utility.yul\":2555:3064   */\n      swap3\n      swap2\n      pop\n      pop\n      jump\t// out\n        /* \"#utility.yul\":3070:3169   */\n    tag_87:\n        /* \"#utility.yul\":3122:3128   */\n      0x00\n        /* \"#utility.yul\":3156:3161   */\n      dup2\n        /* \"#utility.yul\":3150:3162   */\n      mload\n        /* \"#utility.yul\":3140:3162   */\n      swap1\n      pop\n        /* \"#utility.yul\":3070:3169   */\n      swap2\n      swap1\n      pop\n      jump\t// out\n        /* \"#utility.yul\":3175:3344   */\n    tag_88:\n        /* \"#utility.yul\":3259:3270   */\n      0x00\n        /* \"#utility.yul\":3293:3299   */\n      dup3\n        /* \"#utility.yul\":3288:3291   */\n      dup3\n        /* \"#utility.yul\":3281:3300   */\n      mstore\n        /* \"#utility.yul\":3333:3337   */\n      0x20\n        /* \"#utility.yul\":3328:3331   */\n      dup3\n        /* \"#utility.yul\":3324:3338   */\n      add\n        /* \"#utility.yul\":3309:3338   */\n      swap1\n      pop\n        /* \"#utility.yul\":3175:3344   */\n      swap3\n      swap2\n      pop\n      pop\n      jump\t// out\n        /* \"#utility.yul\":3350:3489   */\n    tag_89:\n        /* \"#utility.yul\":3439:3445   */\n      dup3\n        /* \"#utility.yul\":3434:3437   */\n      dup2\n        /* \"#utility.yul\":3429:3432   */\n      dup4\n        /* \"#utility.yul\":3423:3446   */\n      mcopy\n        /* \"#utility.yul\":3480:3481   */\n      0x00\n        /* \"#utility.yul\":3471:3477   */\n      dup4\n        /* \"#utility.yul\":3466:3469   */\n      dup4\n        /* \"#utility.yul\":3462:3478   */\n      add\n        /* \"#utility.yul\":3455:3482   */\n      mstore\n        /* \"#utility.yul\":3350:3489   */\n      pop\n      pop\n      pop\n      jump\t// out\n        /* \"#utility.yul\":3495:3872   */\n    tag_90:\n        /* \"#utility.yul\":3583:3586   */\n      0x00\n        /* \"#utility.yul\":3611:3650   */\n      tag_157\n        /* \"#utility.yul\":3644:3649   */\n      dup3\n        /* \"#utility.yul\":3611:3650   */\n      tag_87\n      jump\t// in\n    tag_157:\n        /* \"#utility.yul\":3666:3737   */\n      tag_158\n        /* \"#utility.yul\":3730:3736   */\n      dup2\n        /* \"#utility.yul\":3725:3728   */\n      dup6\n        /* \"#utility.yul\":3666:3737   */\n      tag_88\n      jump\t// in\n    tag_158:\n        /* \"#utility.yul\":3659:3737   */\n      swap4\n      pop\n        /* \"#utility.yul\":3746:3811   */\n      tag_159\n        /* \"#utility.yul\":3804:3810   */\n      dup2\n        /* \"#utility.yul\":3799:3802   */\n      dup6\n        /* \"#utility.yul\":3792:3796   */\n      0x20\n        /* \"#utility.yul\":3785:3790   */\n      dup7\n        /* \"#utility.yul\":3781:3797   */\n      add\n        /* \"#utility.yul\":3746:3811   */\n      tag_89\n      jump\t// in\n    tag_159:\n        /* \"#utility.yul\":3836:3865   */\n      tag_160\n        /* \"#utility.yul\":3858:3864   */\n      dup2\n        /* \"#utility.yul\":3836:3865   */\n      tag_79\n      jump\t// in\n    tag_160:\n        /* \"#utility.yul\":3831:3834   */\n      dup5\n        /* \"#utility.yul\":3827:3866   */\n      add\n        /* \"#utility.yul\":3820:3866   */\n      swap2\n      pop\n        /* \"#utility.yul\":3587:3872   */\n      pop\n        /* \"#utility.yul\":3495:3872   */\n      swap3\n      swap2\n      pop\n      pop\n      jump\t// out\n        /* \"#utility.yul\":3878:4191   */\n    tag_19:\n        /* \"#utility.yul\":3991:3995   */\n      0x00\n        /* \"#utility.yul\":4029:4031   */\n      0x20\n        /* \"#utility.yul\":4018:4027   */\n      dup3\n        /* \"#utility.yul\":4014:4032   */\n      add\n        /* \"#utility.yul\":4006:4032   */\n      swap1\n      pop\n        /* \"#utility.yul\":4078:4087   */\n      dup2\n        /* \"#utility.yul\":4072:4076   */\n      dup2\n        /* \"#utility.yul\":4068:4088   */\n      sub\n        /* \"#utility.yul\":4064:4065   */\n      0x00\n        /* \"#utility.yul\":4053:4062   */\n      dup4\n        /* \"#utility.yul\":4049:4066   */\n      add\n        /* \"#utility.yul\":4042:4089   */\n      mstore\n        /* \"#utility.yul\":4106:4184   */\n      tag_162\n        /* \"#utility.yul\":4179:4183   */\n      dup2\n        /* \"#utility.yul\":4170:4176   */\n      dup5\n        /* \"#utility.yul\":4106:4184   */\n      tag_90\n      jump\t// in\n    tag_162:\n        /* \"#utility.yul\":4098:4184   */\n      swap1\n      pop\n        /* \"#utility.yul\":3878:4191   */\n      swap3\n      swap2\n      pop\n      pop\n      jump\t// out\n        /* \"#utility.yul\":4197:4274   */\n    tag_91:\n        /* \"#utility.yul\":4234:4241   */\n      0x00\n        /* \"#utility.yul\":4263:4268   */\n      dup2\n        /* \"#utility.yul\":4252:4268   */\n      swap1\n      pop\n        /* \"#utility.yul\":4197:4274   */\n      swap2\n      swap1\n      pop\n      jump\t// out\n        /* \"#utility.yul\":4280:4402   */\n    tag_92:\n        /* \"#utility.yul\":4353:4377   */\n      tag_165\n        /* \"#utility.yul\":4371:4376   */\n      dup2\n        /* \"#utility.yul\":4353:4377   */\n      tag_91\n      jump\t// in\n    tag_165:\n        /* \"#utility.yul\":4346:4351   */\n      dup2\n        /* \"#utility.yul\":4343:4378   */\n      eq\n        /* \"#utility.yul\":4333:4396   */\n      tag_166\n      jumpi\n        /* \"#utility.yul\":4392:4393   */\n      0x00\n        /* \"#utility.yul\":4389:4390   */\n      0x00\n        /* \"#utility.yul\":4382:4394   */\n      revert\n        /* \"#utility.yul\":4333:4396   */\n    tag_166:\n        /* \"#utility.yul\":4280:4402   */\n      pop\n      jump\t// out\n        /* \"#utility.yul\":4408:4547   */\n    tag_93:\n        /* \"#utility.yul\":4454:4459   */\n      0x00\n        /* \"#utility.yul\":4492:4498   */\n      dup2\n        /* \"#utility.yul\":4479:4499   */\n      calldataload\n        /* \"#utility.yul\":4470:4499   */\n      swap1\n      pop\n        /* \"#utility.yul\":4508:4541   */\n      tag_168\n        /* \"#utility.yul\":4535:4540   */\n      dup2\n        /* \"#utility.yul\":4508:4541   */\n      tag_92\n      jump\t// in\n    tag_168:\n        /* \"#utility.yul\":4408:4547   */\n      swap3\n      swap2\n      pop\n      pop\n      jump\t// out\n        /* \"#utility.yul\":4553:4882   */\n    tag_22:\n        /* \"#utility.yul\":4612:4618   */\n      0x00\n        /* \"#utility.yul\":4661:4663   */\n      0x20\n        /* \"#utility.yul\":4649:4658   */\n      dup3\n        /* \"#utility.yul\":4640:4647   */\n      dup5\n        /* \"#utility.yul\":4636:4659   */\n      sub\n        /* \"#utility.yul\":4632:4664   */\n      slt\n        /* \"#utility.yul\":4629:4748   */\n      iszero\n      tag_170\n      jumpi\n        /* \"#utility.yul\":4667:4746   */\n      tag_171\n      tag_75\n      jump\t// in\n    tag_171:\n        /* \"#utility.yul\":4629:4748   */\n    tag_170:\n        /* \"#utility.yul\":4787:4788   */\n      0x00\n        /* \"#utility.yul\":4812:4865   */\n      tag_172\n        /* \"#utility.yul\":4857:4864   */\n      dup5\n        /* \"#utility.yul\":4848:4854   */\n      dup3\n        /* \"#utility.yul\":4837:4846   */\n      dup6\n        /* \"#utility.yul\":4833:4855   */\n      add\n        /* \"#utility.yul\":4812:4865   */\n      tag_93\n      jump\t// in\n    tag_172:\n        /* \"#utility.yul\":4802:4865   */\n      swap2\n      pop\n        /* \"#utility.yul\":4758:4875   */\n      pop\n        /* \"#utility.yul\":4553:4882   */\n      swap3\n      swap2\n      pop\n      pop\n      jump\t// out\n        /* \"#utility.yul\":4888:4978   */\n    tag_94:\n        /* \"#utility.yul\":4922:4929   */\n      0x00\n        /* \"#utility.yul\":4965:4970   */\n      dup2\n        /* \"#utility.yul\":4958:4971   */\n      iszero\n        /* \"#utility.yul\":4951:4972   */\n      iszero\n        /* \"#utility.yul\":4940:4972   */\n      swap1\n      pop\n        /* \"#utility.yul\":4888:4978   */\n      swap2\n      swap1\n      pop\n      jump\t// out\n        /* \"#utility.yul\":4984:5093   */\n    tag_95:\n        /* \"#utility.yul\":5065:5086   */\n      tag_175\n        /* \"#utility.yul\":5080:5085   */\n      dup2\n        /* \"#utility.yul\":5065:5086   */\n      tag_94\n      jump\t// in\n    tag_175:\n        /* \"#utility.yul\":5060:5063   */\n      dup3\n        /* \"#utility.yul\":5053:5087   */\n      mstore\n        /* \"#utility.yul\":4984:5093   */\n      pop\n      pop\n      jump\t// out\n        /* \"#utility.yul\":5099:5309   */\n    tag_28:\n        /* \"#utility.yul\":5186:5190   */\n      0x00\n        /* \"#utility.yul\":5224:5226   */\n      0x20\n        /* \"#utility.yul\":5213:5222   */\n      dup3\n        /* \"#utility.yul\":5209:5227   */\n      add\n        /* \"#utility.yul\":5201:5227   */\n      swap1\n      pop\n        /* \"#utility.yul\":5237:5302   */\n      tag_177\n        /* \"#utility.yul\":5299:5300   */\n      0x00\n        /* \"#utility.yul\":5288:5297   */\n      dup4\n        /* \"#utility.yul\":5284:5301   */\n      add\n        /* \"#utility.yul\":5275:5281   */\n      dup5\n        /* \"#utility.yul\":5237:5302   */\n      tag_95\n      jump\t// in\n    tag_177:\n        /* \"#utility.yul\":5099:5309   */\n      swap3\n      swap2\n      pop\n      pop\n      jump\t// out\n        /* \"#utility.yul\":5315:5431   */\n    tag_96:\n        /* \"#utility.yul\":5385:5406   */\n      tag_179\n        /* \"#utility.yul\":5400:5405   */\n      dup2\n        /* \"#utility.yul\":5385:5406   */\n      tag_94\n      jump\t// in\n    tag_179:\n        /* \"#utility.yul\":5378:5383   */\n      dup2\n        /* \"#utility.yul\":5375:5407   */\n      eq\n        /* \"#utility.yul\":5365:5425   */\n      tag_180\n      jumpi\n        /* \"#utility.yul\":5421:5422   */\n      0x00\n        /* \"#utility.yul\":5418:5419   */\n      0x00\n        /* \"#utility.yul\":5411:5423   */\n      revert\n        /* \"#utility.yul\":5365:5425   */\n    tag_180:\n        /* \"#utility.yul\":5315:5431   */\n      pop\n      jump\t// out\n        /* \"#utility.yul\":5437:5570   */\n    tag_97:\n        /* \"#utility.yul\":5480:5485   */\n      0x00\n        /* \"#utility.yul\":5518:5524   */\n      dup2\n        /* \"#utility.yul\":5505:5525   */\n      calldataload\n        /* \"#utility.yul\":5496:5525   */\n      swap1\n      pop\n        /* \"#utility.yul\":5534:5564   */\n      tag_182\n        /* \"#utility.yul\":5558:5563   */\n      dup2\n        /* \"#utility.yul\":5534:5564   */\n      tag_96\n      jump\t// in\n    tag_182:\n        /* \"#utility.yul\":5437:5570   */\n      swap3\n      swap2\n      pop\n      pop\n      jump\t// out\n        /* \"#utility.yul\":5576:6369   */\n    tag_31:\n        /* \"#utility.yul\":5660:5666   */\n      0x00\n        /* \"#utility.yul\":5668:5674   */\n      0x00\n        /* \"#utility.yul\":5676:5682   */\n      0x00\n        /* \"#utility.yul\":5725:5727   */\n      0x60\n        /* \"#utility.yul\":5713:5722   */\n      dup5\n        /* \"#utility.yul\":5704:5711   */\n      dup7\n        /* \"#utility.yul\":5700:5723   */\n      sub\n        /* \"#utility.yul\":5696:5728   */\n      slt\n        /* \"#utility.yul\":5693:5812   */\n      iszero\n      tag_184\n      jumpi\n        /* \"#utility.yul\":5731:5810   */\n      tag_185\n      tag_75\n      jump\t// in\n    tag_185:\n        /* \"#utility.yul\":5693:5812   */\n    tag_184:\n        /* \"#utility.yul\":5851:5852   */\n      0x00\n        /* \"#utility.yul\":5876:5929   */\n      tag_186\n        /* \"#utility.yul\":5921:5928   */\n      dup7\n        /* \"#utility.yul\":5912:5918   */\n      dup3\n        /* \"#utility.yul\":5901:5910   */\n      dup8\n        /* \"#utility.yul\":5897:5919   */\n      add\n        /* \"#utility.yul\":5876:5929   */\n      tag_93\n      jump\t// in\n    tag_186:\n        /* \"#utility.yul\":5866:5929   */\n      swap4\n      pop\n        /* \"#utility.yul\":5822:5939   */\n      pop\n        /* \"#utility.yul\":6006:6008   */\n      0x20\n        /* \"#utility.yul\":5995:6004   */\n      dup5\n        /* \"#utility.yul\":5991:6009   */\n      add\n        /* \"#utility.yul\":5978:6010   */\n      calldataload\n        /* \"#utility.yul\":6037:6055   */\n      0xffffffffffffffff\n        /* \"#utility.yul\":6029:6035   */\n      dup2\n        /* \"#utility.yul\":6026:6056   */\n      gt\n        /* \"#utility.yul\":6023:6140   */\n      iszero\n      tag_187\n      jumpi\n        /* \"#utility.yul\":6059:6138   */\n      tag_188\n      tag_76\n      jump\t// in\n    tag_188:\n        /* \"#utility.yul\":6023:6140   */\n    tag_187:\n        /* \"#utility.yul\":6164:6227   */\n      tag_189\n        /* \"#utility.yul\":6219:6226   */\n      dup7\n        /* \"#utility.yul\":6210:6216   */\n      dup3\n        /* \"#utility.yul\":6199:6208   */\n      dup8\n        /* \"#utility.yul\":6195:6217   */\n      add\n        /* \"#utility.yul\":6164:6227   */\n      tag_86\n      jump\t// in\n    tag_189:\n        /* \"#utility.yul\":6154:6227   */\n      swap3\n      pop\n        /* \"#utility.yul\":5949:6237   */\n      pop\n        /* \"#utility.yul\":6276:6278   */\n      0x40\n        /* \"#utility.yul\":6302:6352   */\n      tag_190\n        /* \"#utility.yul\":6344:6351   */\n      dup7\n        /* \"#utility.yul\":6335:6341   */\n      dup3\n        /* \"#utility.yul\":6324:6333   */\n      dup8\n        /* \"#utility.yul\":6320:6342   */\n      add\n        /* \"#utility.yul\":6302:6352   */\n      tag_97\n      jump\t// in\n    tag_190:\n        /* \"#utility.yul\":6292:6352   */\n      swap2\n      pop\n        /* \"#utility.yul\":6247:6362   */\n      pop\n        /* \"#utility.yul\":5576:6369   */\n      swap3\n      pop\n      swap3\n      pop\n      swap3\n      jump\t// out\n        /* \"#utility.yul\":6375:6493   */\n    tag_98:\n        /* \"#utility.yul\":6462:6486   */\n      tag_192\n        /* \"#utility.yul\":6480:6485   */\n      dup2\n        /* \"#utility.yul\":6462:6486   */\n      tag_91\n      jump\t// in\n    tag_192:\n        /* \"#utility.yul\":6457:6460   */\n      dup3\n        /* \"#utility.yul\":6450:6487   */\n      mstore\n        /* \"#utility.yul\":6375:6493   */\n      pop\n      pop\n      jump\t// out\n        /* \"#utility.yul\":6499:7020   */\n    tag_36:\n        /* \"#utility.yul\":6662:6666   */\n      0x00\n        /* \"#utility.yul\":6700:6702   */\n      0x60\n        /* \"#utility.yul\":6689:6698   */\n      dup3\n        /* \"#utility.yul\":6685:6703   */\n      add\n        /* \"#utility.yul\":6677:6703   */\n      swap1\n      pop\n        /* \"#utility.yul\":6713:6784   */\n      tag_194\n        /* \"#utility.yul\":6781:6782   */\n      0x00\n        /* \"#utility.yul\":6770:6779   */\n      dup4\n        /* \"#utility.yul\":6766:6783   */\n      add\n        /* \"#utility.yul\":6757:6763   */\n      dup7\n        /* \"#utility.yul\":6713:6784   */\n      tag_98\n      jump\t// in\n    tag_194:\n        /* \"#utility.yul\":6831:6840   */\n      dup2\n        /* \"#utility.yul\":6825:6829   */\n      dup2\n        /* \"#utility.yul\":6821:6841   */\n      sub\n        /* \"#utility.yul\":6816:6818   */\n      0x20\n        /* \"#utility.yul\":6805:6814   */\n      dup4\n        /* \"#utility.yul\":6801:6819   */\n      add\n        /* \"#utility.yul\":6794:6842   */\n      mstore\n        /* \"#utility.yul\":6859:6937   */\n      tag_195\n        /* \"#utility.yul\":6932:6936   */\n      dup2\n        /* \"#utility.yul\":6923:6929   */\n      dup6\n        /* \"#utility.yul\":6859:6937   */\n      tag_90\n      jump\t// in\n    tag_195:\n        /* \"#utility.yul\":6851:6937   */\n      swap1\n      pop\n        /* \"#utility.yul\":6947:7013   */\n      tag_196\n        /* \"#utility.yul\":7009:7011   */\n      0x40\n        /* \"#utility.yul\":6998:7007   */\n      dup4\n        /* \"#utility.yul\":6994:7012   */\n      add\n        /* \"#utility.yul\":6985:6991   */\n      dup5\n        /* \"#utility.yul\":6947:7013   */\n      tag_95\n      jump\t// in\n    tag_196:\n        /* \"#utility.yul\":6499:7020   */\n      swap5\n      swap4\n      pop\n      pop\n      pop\n      pop\n      jump\t// out\n        /* \"#utility.yul\":7026:7248   */\n    tag_40:\n        /* \"#utility.yul\":7119:7123   */\n      0x00\n        /* \"#utility.yul\":7157:7159   */\n      0x20\n        /* \"#utility.yul\":7146:7155   */\n      dup3\n        /* \"#utility.yul\":7142:7160   */\n      add\n        /* \"#utility.yul\":7134:7160   */\n      swap1\n      pop\n        /* \"#utility.yul\":7170:7241   */\n      tag_198\n        /* \"#utility.yul\":7238:7239   */\n      0x00\n        /* \"#utility.yul\":7227:7236   */\n      dup4\n        /* \"#utility.yul\":7223:7240   */\n      add\n        /* \"#utility.yul\":7214:7220   */\n      dup5\n        /* \"#utility.yul\":7170:7241   */\n      tag_98\n      jump\t// in\n    tag_198:\n        /* \"#utility.yul\":7026:7248   */\n      swap3\n      swap2\n      pop\n      pop\n      jump\t// out\n        /* \"#utility.yul\":7254:7434   */\n    tag_99:\n        /* \"#utility.yul\":7302:7379   */\n      0x4e487b7100000000000000000000000000000000000000000000000000000000\n        /* \"#utility.yul\":7299:7300   */\n      0x00\n        /* \"#utility.yul\":7292:7380   */\n      mstore\n        /* \"#utility.yul\":7399:7403   */\n      0x22\n        /* \"#utility.yul\":7396:7397   */\n      0x04\n        /* \"#utility.yul\":7389:7404   */\n      mstore\n        /* \"#utility.yul\":7423:7427   */\n      0x24\n        /* \"#utility.yul\":7420:7421   */\n      0x00\n        /* \"#utility.yul\":7413:7428   */\n      revert\n        /* \"#utility.yul\":7440:7760   */\n    tag_51:\n        /* \"#utility.yul\":7484:7490   */\n      0x00\n        /* \"#utility.yul\":7521:7522   */\n      0x02\n        /* \"#utility.yul\":7515:7519   */\n      dup3\n        /* \"#utility.yul\":7511:7523   */\n      div\n        /* \"#utility.yul\":7501:7523   */\n      swap1\n      pop\n        /* \"#utility.yul\":7568:7569   */\n      0x01\n        /* \"#utility.yul\":7562:7566   */\n      dup3\n        /* \"#utility.yul\":7558:7570   */\n      and\n        /* \"#utility.yul\":7589:7607   */\n      dup1\n        /* \"#utility.yul\":7579:7660   */\n      tag_201\n      jumpi\n        /* \"#utility.yul\":7645:7649   */\n      0x7f\n        /* \"#utility.yul\":7637:7643   */\n      dup3\n        /* \"#utility.yul\":7633:7650   */\n      and\n        /* \"#utility.yul\":7623:7650   */\n      swap2\n      pop\n        /* \"#utility.yul\":7579:7660   */\n    tag_201:\n        /* \"#utility.yul\":7707:7709   */\n      0x20\n        /* \"#utility.yul\":7699:7705   */\n      dup3\n        /* \"#utility.yul\":7696:7710   */\n      lt\n        /* \"#utility.yul\":7676:7694   */\n      dup2\n        /* \"#utility.yul\":7673:7711   */\n      sub\n        /* \"#utility.yul\":7670:7754   */\n      tag_202\n      jumpi\n        /* \"#utility.yul\":7726:7744   */\n      tag_203\n      tag_99\n      jump\t// in\n    tag_203:\n        /* \"#utility.yul\":7670:7754   */\n    tag_202:\n        /* \"#utility.yul\":7491:7760   */\n      pop\n        /* \"#utility.yul\":7440:7760   */\n      swap2\n      swap1\n      pop\n      jump\t// out\n        /* \"#utility.yul\":7766:7907   */\n    tag_100:\n        /* \"#utility.yul\":7815:7819   */\n      0x00\n        /* \"#utility.yul\":7838:7841   */\n      dup2\n        /* \"#utility.yul\":7830:7841   */\n      swap1\n      pop\n        /* \"#utility.yul\":7861:7864   */\n      dup2\n        /* \"#utility.yul\":7858:7859   */\n      0x00\n        /* \"#utility.yul\":7851:7865   */\n      mstore\n        /* \"#utility.yul\":7895:7899   */\n      0x20\n        /* \"#utility.yul\":7892:7893   */\n      0x00\n        /* \"#utility.yul\":7882:7900   */\n      keccak256\n        /* \"#utility.yul\":7874:7900   */\n      swap1\n      pop\n        /* \"#utility.yul\":7766:7907   */\n      swap2\n      swap1\n      pop\n      jump\t// out\n        /* \"#utility.yul\":7913:8006   */\n    tag_101:\n        /* \"#utility.yul\":7950:7956   */\n      0x00\n        /* \"#utility.yul\":7997:7999   */\n      0x20\n        /* \"#utility.yul\":7992:7994   */\n      0x1f\n        /* \"#utility.yul\":7985:7990   */\n      dup4\n        /* \"#utility.yul\":7981:7995   */\n      add\n        /* \"#utility.yul\":7977:8000   */\n      div\n        /* \"#utility.yul\":7967:8000   */\n      swap1\n      pop\n        /* \"#utility.yul\":7913:8006   */\n      swap2\n      swap1\n      pop\n      jump\t// out\n        /* \"#utility.yul\":8012:8119   */\n    tag_102:\n        /* \"#utility.yul\":8056:8064   */\n      0x00\n        /* \"#utility.yul\":8106:8111   */\n      dup3\n        /* \"#utility.yul\":8100:8104   */\n      dup3\n        /* \"#utility.yul\":8096:8112   */\n      shl\n        /* \"#utility.yul\":8075:8112   */\n      swap1\n      pop\n        /* \"#utility.yul\":8012:8119   */\n      swap3\n      swap2\n      pop\n      pop\n      jump\t// out\n        /* \"#utility.yul\":8125:8518   */\n    tag_103:\n        /* \"#utility.yul\":8194:8200   */\n      0x00\n        /* \"#utility.yul\":8244:8245   */\n      0x08\n        /* \"#utility.yul\":8232:8242   */\n      dup4\n        /* \"#utility.yul\":8228:8246   */\n      mul\n        /* \"#utility.yul\":8267:8364   */\n      tag_208\n        /* \"#utility.yul\":8297:8363   */\n      0xffffffffffffffffffffffffffffffffffffffffffffffffffffffffffffffff\n        /* \"#utility.yul\":8286:8295   */\n      dup3\n        /* \"#utility.yul\":8267:8364   */\n      tag_102\n      jump\t// in\n    tag_208:\n        /* \"#utility.yul\":8385:8424   */\n      tag_209\n        /* \"#utility.yul\":8415:8423   */\n      dup7\n        /* \"#utility.yul\":8404:8413   */\n      dup4\n        /* \"#utility.yul\":8385:8424   */\n      tag_102\n      jump\t// in\n    tag_209:\n        /* \"#utility.yul\":8373:8424   */\n      swap6\n      pop\n        /* \"#utility.yul\":8457:8461   */\n      dup1\n        /* \"#utility.yul\":8453:8462   */\n      not\n        /* \"#utility.yul\":8446:8451   */\n      dup5\n        /* \"#utility.yul\":8442:8463   */\n      and\n        /* \"#utility.yul\":8433:8463   */\n      swap4\n      pop\n        /* \"#utility.yul\":8506:8510   */\n      dup1\n        /* \"#utility.yul\":8496:8504   */\n      dup7\n        /* \"#utility.yul\":8492:8511   */\n      and\n        /* \"#utility.yul\":8485:8490   */\n      dup5\n        /* \"#utility.yul\":8482:8512   */\n      or\n        /* \"#utility.yul\":8472:8512   */\n      swap3\n      pop\n        /* \"#utility.yul\":8201:8518   */\n      pop\n      pop\n        /* \"#utility.yul\":8125:8518   */\n      swap4\n      swap3\n      pop\n      pop\n      pop\n      jump\t// out\n        /* \"#utility.yul\":8524:8584   */\n    tag_104:\n        /* \"#utility.yul\":8552:8555   */\n      0x00\n        /* \"#utility.yul\":8573:8578   */\n      dup2\n        /* \"#utility.yul\":8566:8578   */\n      swap1\n      pop\n        /* \"#utility.yul\":8524:8584   */\n      swap2\n      swap1\n      pop\n      jump\t// out\n        /* \"#utility.yul\":8590:8732   */\n    tag_105:\n        /* \"#utility.yul\":8640:8649   */\n      0x00\n        /* \"#utility.yul\":8673:8726   */\n      tag_212\n        /* \"#utility.yul\":8691:8725   */\n      tag_213\n        /* \"#utility.yul\":8700:8724   */\n      tag_214\n        /* \"#utility.yul\":8718:8723   */\n      dup5\n        /* \"#utility.yul\":8700:8724   */\n      tag_91\n      jump\t// in\n    tag_214:\n        /* \"#utility.yul\":8691:8725   */\n      tag_104\n      jump\t// in\n    tag_213:\n        /* \"#utility.yul\":8673:8726   */\n      tag_91\n      jump\t// in\n    tag_212:\n        /* \"#utility.yul\":8660:8726   */\n      swap1\n      pop\n        /* \"#utility.yul\":8590:8732   */\n      swap2\n      swap1\n      pop\n      jump\t// out\n        /* \"#utility.yul\":8738:8813   */\n    tag_106:\n        /* \"#utility.yul\":8781:8784   */\n      0x00\n        /* \"#utility.yul\":8802:8807   */\n      dup2\n        /* \"#utility.yul\":8795:8807   */\n      swap1\n      pop\n        /* \"#utility.yul\":8738:8813   */\n      swap2\n      swap1\n      pop\n      jump\t// out\n        /* \"#utility.yul\":8819:9088   */\n    tag_107:\n        /* \"#utility.yul\":8929:8968   */\n      tag_217\n        /* \"#utility.yul\":8960:8967   */\n      dup4\n        /* \"#utility.yul\":8929:8968   */\n      tag_105\n      jump\t// in\n    tag_217:\n        /* \"#utility.yul\":8990:9081   */\n      tag_218\n        /* \"#utility.yul\":9039:9080   */\n      tag_219\n        /* \"#utility.yul\":9063:9079   */\n      dup3\n        /* \"#utility.yul\":9039:9080   */\n      tag_106\n      jump\t// in\n    tag_219:\n        /* \"#utility.yul\":9031:9037   */\n      dup5\n        /* \"#utility.yul\":9024:9028   */\n      dup5\n        /* \"#utility.yul\":9018:9029   */\n      sload\n        /* \"#utility.yul\":8990:9081   */\n      tag_103\n      jump\t// in\n    tag_218:\n        /* \"#utility.yul\":8984:8988   */\n      dup3\n        /* \"#utility.yul\":8977:9082   */\n      sstore\n        /* \"#utility.yul\":8895:9088   */\n      pop\n        /* \"#utility.yul\":8819:9088   */\n      pop\n      pop\n      pop\n      jump\t// out\n        /* \"#utility.yul\":9094:9167   */\n    tag_108:\n        /* \"#utility.yul\":9139:9142   */\n      0x00\n        /* \"#utility.yul\":9160:9161   */\n      0x00\n        /* \"#utility.yul\":9153:9161   */\n      swap1\n      pop\n        /* \"#utility.yul\":9094:9167   */\n      swap1\n      jump\t// out\n        /* \"#utility.yul\":9173:9362   */\n    tag_109:\n        /* \"#utility.yul\":9250:9282   */\n      tag_222\n      tag_108\n      jump\t// in\n    tag_222:\n        /* \"#utility.yul\":9291:9356   */\n      tag_223\n        /* \"#utility.yul\":9349:9355   */\n      dup2\n        /* \"#utility.yul\":9341:9347   */\n      dup5\n        /* \"#utility.yul\":9335:9339   */\n      dup5\n        /* \"#utility.yul\":9291:9356   */\n      tag_107\n      jump\t// in\n    tag_223:\n        /* \"#utility.yul\":9226:9362   */\n      pop\n        /* \"#utility.yul\":9173:9362   */\n      pop\n      pop\n      jump\t// out\n        /* \"#utility.yul\":9368:9554   */\n    tag_110:\n        /* \"#utility.yul\":9428:9548   */\n    tag_225:\n        /* \"#utility.yul\":9445:9448   */\n      dup2\n        /* \"#utility.yul\":9438:9443   */\n      dup2\n        /* \"#utility.yul\":9435:9449   */\n      lt\n        /* \"#utility.yul\":9428:9548   */\n      iszero\n      tag_227\n      jumpi\n        /* \"#utility.yul\":9499:9538   */\n      tag_228\n        /* \"#utility.yul\":9536:9537   */\n      0x00\n        /* \"#utility.yul\":9529:9534   */\n      dup3\n        /* \"#utility.yul\":9499:9538   */\n      tag_109\n      jump\t// in\n    tag_228:\n        /* \"#utility.yul\":9472:9473   */\n      0x01\n        /* \"#utility.yul\":9465:9470   */\n      dup2\n        /* \"#utility.yul\":9461:9474   */\n      add\n        /* \"#utility.yul\":9452:9474   */\n      swap1\n      pop\n        /* \"#utility.yul\":9428:9548   */\n      jump(tag_225)\n    tag_227:\n        /* \"#utility.yul\":9368:9554   */\n      pop\n      pop\n      jump\t// out\n        /* \"#utility.yul\":9560:10103   */\n    tag_111:\n        /* \"#utility.yul\":9661:9663   */\n      0x1f\n        /* \"#utility.yul\":9656:9659   */\n      dup3\n        /* \"#utility.yul\":9653:9664   */\n      gt\n        /* \"#utility.yul\":9650:10096   */\n      iszero\n      tag_230\n      jumpi\n        /* \"#utility.yul\":9695:9733   */\n      tag_231\n        /* \"#utility.yul\":9727:9732   */\n      dup2\n        /* \"#utility.yul\":9695:9733   */\n      tag_100\n      jump\t// in\n    tag_231:\n        /* \"#utility.yul\":9779:9808   */\n      tag_232\n        /* \"#utility.yul\":9797:9807   */\n      dup5\n        /* \"#utility.yul\":9779:9808   */\n      tag_101\n      jump\t// in\n    tag_232:\n        /* \"#utility.yul\":9769:9777   */\n      dup2\n        /* \"#utility.yul\":9765:9809   */\n      add\n        /* \"#utility.yul\":9962:9964   */\n      0x20\n        /* \"#utility.yul\":9950:9960   */\n      dup6\n        /* \"#utility.yul\":9947:9965   */\n      lt\n        /* \"#utility.yul\":9944:9993   */\n      iszero\n      tag_233\n      jumpi\n        /* \"#utility.yul\":9983:9991   */\n      dup2\n        /* \"#utility.yul\":9968:9991   */\n      swap1\n      pop\n        /* \"#utility.yul\":9944:9993   */\n    tag_233:\n        /* \"#utility.yul\":10006:10086   */\n      tag_234\n        /* \"#utility.yul\":10062:10084   */\n      tag_235\n        /* \"#utility.yul\":10080:10083   */\n      dup6\n        /* \"#utility.yul\":10062:10084   */\n      tag_101\n      jump\t// in\n    tag_235:\n        /* \"#utility.yul\":10052:10060   */\n      dup4\n        /* \"#utility.yul\":10048:10085   */\n      add\n        /* \"#utility.yul\":10035:10046   */\n      dup3\n        /* \"#utility.yul\":10006:10086   */\n      tag_110\n      jump\t// in\n    tag_234:\n        /* \"#utility.yul\":9665:10096   */\n      pop\n      pop\n        /* \"#utility.yul\":9650:10096   */\n    tag_230:\n        /* \"#utility.yul\":9560:10103   */\n      pop\n      pop\n      pop\n      jump\t// out\n        /* \"#utility.yul\":10109:10226   */\n    tag_112:\n        /* \"#utility.yul\":10163:10171   */\n      0x00\n        /* \"#utility.yul\":10213:10218   */\n      dup3\n        /* \"#utility.yul\":10207:10211   */\n      dup3\n        /* \"#utility.yul\":10203:10219   */\n      shr\n        /* \"#utility.yul\":10182:10219   */\n      swap1\n      pop\n        /* \"#utility.yul\":10109:10226   */\n      swap3\n      swap2\n      pop\n      pop\n      jump\t// out\n        /* \"#utility.yul\":10232:10401   */\n    tag_113:\n        /* \"#utility.yul\":10276:10282   */\n      0x00\n        /* \"#utility.yul\":10309:10360   */\n      tag_238\n        /* \"#utility.yul\":10357:10358   */\n      0x00\n        /* \"#utility.yul\":10353:10359   */\n      not\n        /* \"#utility.yul\":10345:10350   */\n      dup5\n        /* \"#utility.yul\":10342:10343   */\n      0x08\n        /* \"#utility.yul\":10338:10351   */\n      mul\n        /* \"#utility.yul\":10309:10360   */\n      tag_112\n      jump\t// in\n    tag_238:\n        /* \"#utility.yul\":10305:10361   */\n      not\n        /* \"#utility.yul\":10390:10394   */\n      dup1\n        /* \"#utility.yul\":10384:10388   */\n      dup4\n        /* \"#utility.yul\":10380:10395   */\n      and\n        /* \"#utility.yul\":10370:10395   */\n      swap2\n      pop\n        /* \"#utility.yul\":10283:10401   */\n      pop\n        /* \"#utility.yul\":10232:10401   */\n      swap3\n      swap2\n      pop\n      pop\n      jump\t// out\n        /* \"#utility.yul\":10406:10701   */\n    tag_114:\n        /* \"#utility.yul\":10482:10486   */\n      0x00\n        /* \"#utility.yul\":10628:10657   */\n      tag_240\n        /* \"#utility.yul\":10653:10656   */\n      dup4\n        /* \"#utility.yul\":10647:10651   */\n      dup4\n        /* \"#utility.yul\":10628:10657   */\n      tag_113\n      jump\t// in\n    tag_240:\n        /* \"#utility.yul\":10620:10657   */\n      swap2\n      pop\n        /* \"#utility.yul\":10690:10693   */\n      dup3\n        /* \"#utility.yul\":10687:10688   */\n      0x02\n        /* \"#utility.yul\":10683:10694   */\n      mul\n        /* \"#utility.yul\":10677:10681   */\n      dup3\n        /* \"#utility.yul\":10674:10695   */\n      or\n        /* \"#utility.yul\":10666:10695   */\n      swap1\n      pop\n        /* \"#utility.yul\":10406:10701   */\n      swap3\n      swap2\n      pop\n      pop\n      jump\t// out\n        /* \"#utility.yul\":10706:12101   */\n    tag_47:\n        /* \"#utility.yul\":10823:10860   */\n      tag_242\n        /* \"#utility.yul\":10856:10859   */\n      dup3\n        /* \"#utility.yul\":10823:10860   */\n      tag_87\n      jump\t// in\n    tag_242:\n        /* \"#utility.yul\":10925:10943   */\n      0xffffffffffffffff\n        /* \"#utility.yul\":10917:10923   */\n      dup2\n        /* \"#utility.yul\":10914:10944   */\n      gt\n        /* \"#utility.yul\":10911:10967   */\n      iszero\n      tag_243\n      jumpi\n        /* \"#utility.yul\":10947:10965   */\n      tag_244\n      tag_80\n      jump\t// in\n    tag_244:\n        /* \"#utility.yul\":10911:10967   */\n    tag_243:\n        /* \"#utility.yul\":10991:11029   */\n      tag_245\n        /* \"#utility.yul\":11023:11027   */\n      dup3\n        /* \"#utility.yul\":11017:11028   */\n      sload\n        /* \"#utility.yul\":10991:11029   */\n      tag_51\n      jump\t// in\n    tag_245:\n        /* \"#utility.yul\":11076:11143   */\n      tag_246\n        /* \"#utility.yul\":11136:11142   */\n      dup3\n        /* \"#utility.yul\":11128:11134   */\n      dup3\n        /* \"#utility.yul\":11122:11126   */\n      dup6\n        /* \"#utility.yul\":11076:11143   */\n      tag_111\n      jump\t// in\n    tag_246:\n        /* \"#utility.yul\":11170:11171   */\n      0x00\n        /* \"#utility.yul\":11194:11198   */\n      0x20\n        /* \"#utility.yul\":11181:11198   */\n      swap1\n      pop\n        /* \"#utility.yul\":11226:11228   */\n      0x1f\n        /* \"#utility.yul\":11218:11224   */\n      dup4\n        /* \"#utility.yul\":11215:11229   */\n      gt\n        /* \"#utility.yul\":11243:11244   */\n      0x01\n        /* \"#utility.yul\":11238:11856   */\n      dup2\n      eq\n      tag_248\n      jumpi\n        /* \"#utility.yul\":11900:11901   */\n      0x00\n        /* \"#utility.yul\":11917:11923   */\n      dup5\n        /* \"#utility.yul\":11914:11991   */\n      iszero\n      tag_249\n      jumpi\n        /* \"#utility.yul\":11966:11975   */\n      dup3\n        /* \"#utility.yul\":11961:11964   */\n      dup8\n        /* \"#utility.yul\":11957:11976   */\n      add\n        /* \"#utility.yul\":11951:11977   */\n      mload\n        /* \"#utility.yul\":11942:11977   */\n      swap1\n      pop\n        /* \"#utility.yul\":11914:11991   */\n    tag_249:\n        /* \"#utility.yul\":12017:12084   */\n      tag_250\n        /* \"#utility.yul\":12077:12083   */\n      dup6\n        /* \"#utility.yul\":12070:12075   */\n      dup3\n        /* \"#utility.yul\":12017:12084   */\n      tag_114\n      jump\t// in\n    tag_250:\n        /* \"#utility.yul\":12011:12015   */\n      dup7\n        /* \"#utility.yul\":12004:12085   */\n      sstore\n        /* \"#utility.yul\":11873:12095   */\n      pop\n        /* \"#utility.yul\":11208:12095   */\n      jump(tag_247)\n        /* \"#utility.yul\":11238:11856   */\n    tag_248:\n        /* \"#utility.yul\":11290:11294   */\n      0x1f\n        /* \"#utility.yul\":11286:11295   */\n      not\n        /* \"#utility.yul\":11278:11284   */\n      dup5\n        /* \"#utility.yul\":11274:11296   */\n      and\n        /* \"#utility.yul\":11324:11361   */\n      tag_251\n        /* \"#utility.yul\":11356:11360   */\n      dup7\n        /* \"#utility.yul\":11324:11361   */\n      tag_100\n      jump\t// in\n    tag_251:\n        /* \"#utility.yul\":11383:11384   */\n      0x00\n        /* \"#utility.yul\":11397:11605   */\n    tag_252:\n        /* \"#utility.yul\":11411:11418   */\n      dup3\n        /* \"#utility.yul\":11408:11409   */\n      dup2\n        /* \"#utility.yul\":11405:11419   */\n      lt\n        /* \"#utility.yul\":11397:11605   */\n      iszero\n      tag_254\n      jumpi\n        /* \"#utility.yul\":11490:11499   */\n      dup5\n        /* \"#utility.yul\":11485:11488   */\n      dup10\n        /* \"#utility.yul\":11481:11500   */\n      add\n        /* \"#utility.yul\":11475:11501   */\n      mload\n        /* \"#utility.yul\":11467:11473   */\n      dup3\n        /* \"#utility.yul\":11460:11502   */\n      sstore\n        /* \"#utility.yul\":11541:11542   */\n      0x01\n        /* \"#utility.yul\":11533:11539   */\n      dup3\n        /* \"#utility.yul\":11529:11543   */\n      add\n        /* \"#utility.yul\":11519:11543   */\n      swap2\n      pop\n        /* \"#utility.yul\":11588:11590   */\n      0x20\n        /* \"#utility.yul\":11577:11586   */\n      dup6\n        /* \"#utility.yul\":11573:11591   */\n      add\n        /* \"#utility.yul\":11560:11591   */\n      swap5\n      pop\n        /* \"#utility.yul\":11434:11438   */\n      0x20\n        /* \"#utility.yul\":11431:11432   */\n      dup2\n        /* \"#utility.yul\":11427:11439   */\n      add\n        /* \"#utility.yul\":11422:11439   */\n      swap1\n      pop\n        /* \"#utility.yul\":11397:11605   */\n      jump(tag_252)\n    tag_254:\n        /* \"#utility.yul\":11633:11639   */\n      dup7\n        /* \"#utility.yul\":11624:11631   */\n      dup4\n        /* \"#utility.yul\":11621:11640   */\n      lt\n        /* \"#utility.yul\":11618:11797   */\n      iszero\n      tag_255\n      jumpi\n        /* \"#utility.yul\":11691:11700   */\n      dup5\n        /* \"#utility.yul\":11686:11689   */\n      dup10\n        /* \"#utility.yul\":11682:11701   */\n      add\n        /* \"#utility.yul\":11676:11702   */\n      mload\n        /* \"#utility.yul\":11734:11782   */\n      tag_256\n        /* \"#utility.yul\":11776:11780   */\n      0x1f\n        /* \"#utility.yul\":11768:11774   */\n      dup10\n        /* \"#utility.yul\":11764:11781   */\n      and\n        /* \"#utility.yul\":11753:11762   */\n      dup3\n        /* \"#utility.yul\":11734:11782   */\n      tag_113\n      jump\t// in\n    tag_256:\n        /* \"#utility.yul\":11726:11732   */\n      dup4\n        /* \"#utility.yul\":11719:11783   */\n      sstore\n        /* \"#utility.yul\":11641:11797   */\n      pop\n        /* \"#utility.yul\":11618:11797   */\n    tag_255:\n        /* \"#utility.yul\":11843:11844   */\n      0x01\n        /* \"#utility.yul\":11839:11840   */\n      0x02\n        /* \"#utility.yul\":11831:11837   */\n      dup9\n        /* \"#utility.yul\":11827:11841   */\n      mul\n        /* \"#utility.yul\":11823:11845   */\n      add\n        /* \"#utility.yul\":11817:11821   */\n      dup9\n        /* \"#utility.yul\":11810:11846   */\n      sstore\n        /* \"#utility.yul\":11245:11856   */\n      pop\n      pop\n      pop\n        /* \"#utility.yul\":11208:12095   */\n    tag_247:\n      pop\n        /* \"#utility.yul\":10798:12101   */\n      pop\n      pop\n      pop\n        /* \"#utility.yul\":10706:12101   */\n      pop\n      pop\n      jump\t// out\n        /* \"#utility.yul\":12107:12255   */\n    tag_115:\n        /* \"#utility.yul\":12209:12220   */\n      0x00\n        /* \"#utility.yul\":12246:12249   */\n      dup2\n        /* \"#utility.yul\":12231:12249   */\n      swap1\n      pop\n        /* \"#utility.yul\":12107:12255   */\n      swap3\n      swap2\n      pop\n      pop\n      jump\t// out\n        /* \"#utility.yul\":12261:12651   */\n    tag_116:\n        /* \"#utility.yul\":12367:12370   */\n      0x00\n        /* \"#utility.yul\":12395:12434   */\n      tag_259\n        /* \"#utility.yul\":12428:12433   */\n      dup3\n        /* \"#utility.yul\":12395:12434   */\n      tag_87\n      jump\t// in\n    tag_259:\n        /* \"#utility.yul\":12450:12539   */\n      tag_260\n        /* \"#utility.yul\":12532:12538   */\n      dup2\n        /* \"#utility.yul\":12527:12530   */\n      dup6\n        /* \"#utility.yul\":12450:12539   */\n      tag_115\n      jump\t// in\n    tag_260:\n        /* \"#utility.yul\":12443:12539   */\n      swap4\n      pop\n        /* \"#utility.yul\":12548:12613   */\n      tag_261\n        /* \"#utility.yul\":12606:12612   */\n      dup2\n        /* \"#utility.yul\":12601:12604   */\n      dup6\n        /* \"#utility.yul\":12594:12598   */\n      0x20\n        /* \"#utility.yul\":12587:12592   */\n      dup7\n        /* \"#utility.yul\":12583:12599   */\n      add\n        /* \"#utility.yul\":12548:12613   */\n      tag_89\n      jump\t// in\n    tag_261:\n        /* \"#utility.yul\":12638:12644   */\n      dup1\n        /* \"#utility.yul\":12633:12636   */\n      dup5\n        /* \"#utility.yul\":12629:12645   */\n      add\n        /* \"#utility.yul\":12622:12645   */\n      swap2\n      pop\n        /* \"#utility.yul\":12371:12651   */\n      pop\n        /* \"#utility.yul\":12261:12651   */\n      swap3\n      swap2\n      pop\n      pop\n      jump\t// out\n        /* \"#utility.yul\":12657:12932   */\n    tag_61:\n        /* \"#utility.yul\":12789:12792   */\n      0x00\n        /* \"#utility.yul\":12811:12906   */\n      tag_263\n        /* \"#utility.yul\":12902:12905   */\n      dup3\n        /* \"#utility.yul\":12893:12899   */\n      dup5\n        /* \"#utility.yul\":12811:12906   */\n      tag_116\n      jump\t// in\n    tag_263:\n        /* \"#utility.yul\":12804:12906   */\n      swap2\n      pop\n        /* \"#utility.yul\":12923:12926   */\n      dup2\n        /* \"#utility.yul\":12916:12926   */\n      swap1\n      pop\n        /* \"#utility.yul\":12657:12932   */\n      swap3\n      swap2\n      pop\n      pop\n      jump\t// out\n\n    auxdata: 0xa2646970667358221220b8a2fcb06bfe96b0cdec1af74f188e82a5c9fdce84b1d404547f897de01ab91c64736f6c634300081e0033\n}\n",
				"bytecode": {
					"linkReferences": {},
					"object": "60806040526040518060600160405280600a81526020016040518060400160405280600981526020017f47757374617669756d000000000000000000000000000000000000000000000081525081526020016001151581525060025f820151815f01556020820151816001019081610077919061033b565b506040820151816002015f6101000a81548160ff021916908315150217905550505073d9145cce52d386f254917e481eb44e9943f3913860085f6101000a81548173ffffffffffffffffffffffffffffffffffffffff021916908373ffffffffffffffffffffffffffffffffffffffff1602179055503480156100f8575f5ffd5b5061040a565b5f81519050919050565b7f4e487b71000000000000000000000000000000000000000000000000000000005f52604160045260245ffd5b7f4e487b71000000000000000000000000000000000000000000000000000000005f52602260045260245ffd5b5f600282049050600182168061017957607f821691505b60208210810361018c5761018b610135565b5b50919050565b5f819050815f5260205f209050919050565b5f6020601f8301049050919050565b5f82821b905092915050565b5f600883026101ee7fffffffffffffffffffffffffffffffffffffffffffffffffffffffffffffffff826101b3565b6101f886836101b3565b95508019841693508086168417925050509392505050565b5f819050919050565b5f819050919050565b5f61023c61023761023284610210565b610219565b610210565b9050919050565b5f819050919050565b61025583610222565b61026961026182610243565b8484546101bf565b825550505050565b5f5f905090565b610280610271565b61028b81848461024c565b505050565b5b818110156102ae576102a35f82610278565b600181019050610291565b5050565b601f8211156102f3576102c481610192565b6102cd846101a4565b810160208510156102dc578190505b6102f06102e8856101a4565b830182610290565b50505b505050565b5f82821c905092915050565b5f6103135f19846008026102f8565b1980831691505092915050565b5f61032b8383610304565b9150826002028217905092915050565b610344826100fe565b67ffffffffffffffff81111561035d5761035c610108565b5b6103678254610162565b6103728282856102b2565b5f60209050601f8311600181146103a3575f8415610391578287015190505b61039b8582610320565b865550610402565b601f1984166103b186610192565b5f5b828110156103d8578489015182556001820191506020850194506020810190506103b3565b868310156103f557848901516103f1601f891682610304565b8355505b6001600288020188555050505b505050505050565b610baa806104175f395ff3fe608060405234801561000f575f5ffd5b5060043610610086575f3560e01c8063dd4e974711610059578063dd4e974714610110578063e1fd72ab1461012c578063e302418a1461014c578063fb7ec44f1461016a57610086565b8063063cfccb1461008a5780630a5eecd7146100a6578063478416f6146100c45780637245e7f5146100e0575b5f5ffd5b6100a4600480360381019061009f9190610606565b61019c565b005b6100ae6101b8565b6040516100bb91906106ad565b60405180910390f35b6100de60048036038101906100d99190610700565b610248565b005b6100fa60048036038101906100f59190610606565b610251565b6040516101079190610745565b60405180910390f35b61012a60048036038101906101259190610788565b610286565b005b610134610344565b60405161014393929190610803565b60405180910390f35b6101546103ed565b604051610161919061083f565b60405180910390f35b610184600480360381019061017f9190610700565b6103f2565b60405161019393929190610803565b60405180910390f35b80600690816101ab9190610a55565b506101b46101b8565b5050565b6060600680546101c790610885565b80601f01602080910402602001604051908101604052809291908181526020018280546101f390610885565b801561023e5780601f106102155761010080835404028352916020019161023e565b820191905f5260205f20905b81548152906001019060200180831161022157829003601f168201915b5050505050905090565b805f8190555050565b6007818051602081018201805184825260208301602085012081835280955050505050505f915054906101000a900460ff1681565b60056040518060600160405280858152602001848152602001831515815250908060018154018082558091505060019003905f5260205f2090600302015f909190919091505f820151815f015560208201518160010190816102e89190610a55565b506040820151816002015f6101000a81548160ff02191690831515021790555050508060078360405161031b9190610b5e565b90815260200160405180910390205f6101000a81548160ff021916908315150217905550505050565b6002805f01549080600101805461035a90610885565b80601f016020809104026020016040519081016040528092919081815260200182805461038690610885565b80156103d15780601f106103a8576101008083540402835291602001916103d1565b820191905f5260205f20905b8154815290600101906020018083116103b457829003601f168201915b505050505090806002015f9054906101000a900460ff16905083565b5f5481565b60058181548110610401575f80fd5b905f5260205f2090600302015f91509050805f01549080600101805461042690610885565b80601f016020809104026020016040519081016040528092919081815260200182805461045290610885565b801561049d5780601f106104745761010080835404028352916020019161049d565b820191905f5260205f20905b81548152906001019060200180831161048057829003601f168201915b505050505090806002015f9054906101000a900460ff16905083565b5f604051905090565b5f5ffd5b5f5ffd5b5f5ffd5b5f5ffd5b5f601f19601f8301169050919050565b7f4e487b71000000000000000000000000000000000000000000000000000000005f52604160045260245ffd5b610518826104d2565b810181811067ffffffffffffffff82111715610537576105366104e2565b5b80604052505050565b5f6105496104b9565b9050610555828261050f565b919050565b5f67ffffffffffffffff821115610574576105736104e2565b5b61057d826104d2565b9050602081019050919050565b828183375f83830152505050565b5f6105aa6105a58461055a565b610540565b9050828152602081018484840111156105c6576105c56104ce565b5b6105d184828561058a565b509392505050565b5f82601f8301126105ed576105ec6104ca565b5b81356105fd848260208601610598565b91505092915050565b5f6020828403121561061b5761061a6104c2565b5b5f82013567ffffffffffffffff811115610638576106376104c6565b5b610644848285016105d9565b91505092915050565b5f81519050919050565b5f82825260208201905092915050565b8281835e5f83830152505050565b5f61067f8261064d565b6106898185610657565b9350610699818560208601610667565b6106a2816104d2565b840191505092915050565b5f6020820190508181035f8301526106c58184610675565b905092915050565b5f819050919050565b6106df816106cd565b81146106e9575f5ffd5b50565b5f813590506106fa816106d6565b92915050565b5f60208284031215610715576107146104c2565b5b5f610722848285016106ec565b91505092915050565b5f8115159050919050565b61073f8161072b565b82525050565b5f6020820190506107585f830184610736565b92915050565b6107678161072b565b8114610771575f5ffd5b50565b5f813590506107828161075e565b92915050565b5f5f5f6060848603121561079f5761079e6104c2565b5b5f6107ac868287016106ec565b935050602084013567ffffffffffffffff8111156107cd576107cc6104c6565b5b6107d9868287016105d9565b92505060406107ea86828701610774565b9150509250925092565b6107fd816106cd565b82525050565b5f6060820190506108165f8301866107f4565b81810360208301526108288185610675565b90506108376040830184610736565b949350505050565b5f6020820190506108525f8301846107f4565b92915050565b7f4e487b71000000000000000000000000000000000000000000000000000000005f52602260045260245ffd5b5f600282049050600182168061089c57607f821691505b6020821081036108af576108ae610858565b5b50919050565b5f819050815f5260205f209050919050565b5f6020601f8301049050919050565b5f82821b905092915050565b5f600883026109117fffffffffffffffffffffffffffffffffffffffffffffffffffffffffffffffff826108d6565b61091b86836108d6565b95508019841693508086168417925050509392505050565b5f819050919050565b5f61095661095161094c846106cd565b610933565b6106cd565b9050919050565b5f819050919050565b61096f8361093c565b61098361097b8261095d565b8484546108e2565b825550505050565b5f5f905090565b61099a61098b565b6109a5818484610966565b505050565b5b818110156109c8576109bd5f82610992565b6001810190506109ab565b5050565b601f821115610a0d576109de816108b5565b6109e7846108c7565b810160208510156109f6578190505b610a0a610a02856108c7565b8301826109aa565b50505b505050565b5f82821c905092915050565b5f610a2d5f1984600802610a12565b1980831691505092915050565b5f610a458383610a1e565b9150826002028217905092915050565b610a5e8261064d565b67ffffffffffffffff811115610a7757610a766104e2565b5b610a818254610885565b610a8c8282856109cc565b5f60209050601f831160018114610abd575f8415610aab578287015190505b610ab58582610a3a565b865550610b1c565b601f198416610acb866108b5565b5f5b82811015610af257848901518255600182019150602085019450602081019050610acd565b86831015610b0f5784890151610b0b601f891682610a1e565b8355505b6001600288020188555050505b505050505050565b5f81905092915050565b5f610b388261064d565b610b428185610b24565b9350610b52818560208601610667565b80840191505092915050565b5f610b698284610b2e565b91508190509291505056fea2646970667358221220b8a2fcb06bfe96b0cdec1af74f188e82a5c9fdce84b1d404547f897de01ab91c64736f6c634300081e0033",
					"opcodes": "PUSH1 0x80 PUSH1 0x40 MSTORE PUSH1 0x40 MLOAD DUP1 PUSH1 0x60 ADD PUSH1 0x40 MSTORE DUP1 PUSH1 0xA DUP2 MSTORE PUSH1 0x20 ADD PUSH1 0x40 MLOAD DUP1 PUSH1 0x40 ADD PUSH1 0x40 MSTORE DUP1 PUSH1 0x9 DUP2 MSTORE PUSH1 0x20 ADD PUSH32 0x47757374617669756D0000000000000000000000000000000000000000000000 DUP2 MSTORE POP DUP2 MSTORE PUSH1 0x20 ADD PUSH1 0x1 ISZERO ISZERO DUP2 MSTORE POP PUSH1 0x2 PUSH0 DUP3 ADD MLOAD DUP2 PUSH0 ADD SSTORE PUSH1 0x20 DUP3 ADD MLOAD DUP2 PUSH1 0x1 ADD SWAP1 DUP2 PUSH2 0x77 SWAP2 SWAP1 PUSH2 0x33B JUMP JUMPDEST POP PUSH1 0x40 DUP3 ADD MLOAD DUP2 PUSH1 0x2 ADD PUSH0 PUSH2 0x100 EXP DUP2 SLOAD DUP2 PUSH1 0xFF MUL NOT AND SWAP1 DUP4 ISZERO ISZERO MUL OR SWAP1 SSTORE POP POP POP PUSH20 0xD9145CCE52D386F254917E481EB44E9943F39138 PUSH1 0x8 PUSH0 PUSH2 0x100 EXP DUP2 SLOAD DUP2 PUSH20 0xFFFFFFFFFFFFFFFFFFFFFFFFFFFFFFFFFFFFFFFF MUL NOT AND SWAP1 DUP4 PUSH20 0xFFFFFFFFFFFFFFFFFFFFFFFFFFFFFFFFFFFFFFFF AND MUL OR SWAP1 SSTORE POP CALLVALUE DUP1 ISZERO PUSH2 0xF8 JUMPI PUSH0 PUSH0 REVERT JUMPDEST POP PUSH2 0x40A JUMP JUMPDEST PUSH0 DUP2 MLOAD SWAP1 POP SWAP2 SWAP1 POP JUMP JUMPDEST PUSH32 0x4E487B7100000000000000000000000000000000000000000000000000000000 PUSH0 MSTORE PUSH1 0x41 PUSH1 0x4 MSTORE PUSH1 0x24 PUSH0 REVERT JUMPDEST PUSH32 0x4E487B7100000000000000000000000000000000000000000000000000000000 PUSH0 MSTORE PUSH1 0x22 PUSH1 0x4 MSTORE PUSH1 0x24 PUSH0 REVERT JUMPDEST PUSH0 PUSH1 0x2 DUP3 DIV SWAP1 POP PUSH1 0x1 DUP3 AND DUP1 PUSH2 0x179 JUMPI PUSH1 0x7F DUP3 AND SWAP2 POP JUMPDEST PUSH1 0x20 DUP3 LT DUP2 SUB PUSH2 0x18C JUMPI PUSH2 0x18B PUSH2 0x135 JUMP JUMPDEST JUMPDEST POP SWAP2 SWAP1 POP JUMP JUMPDEST PUSH0 DUP2 SWAP1 POP DUP2 PUSH0 MSTORE PUSH1 0x20 PUSH0 KECCAK256 SWAP1 POP SWAP2 SWAP1 POP JUMP JUMPDEST PUSH0 PUSH1 0x20 PUSH1 0x1F DUP4 ADD DIV SWAP1 POP SWAP2 SWAP1 POP JUMP JUMPDEST PUSH0 DUP3 DUP3 SHL SWAP1 POP SWAP3 SWAP2 POP POP JUMP JUMPDEST PUSH0 PUSH1 0x8 DUP4 MUL PUSH2 0x1EE PUSH32 0xFFFFFFFFFFFFFFFFFFFFFFFFFFFFFFFFFFFFFFFFFFFFFFFFFFFFFFFFFFFFFFFF DUP3 PUSH2 0x1B3 JUMP JUMPDEST PUSH2 0x1F8 DUP7 DUP4 PUSH2 0x1B3 JUMP JUMPDEST SWAP6 POP DUP1 NOT DUP5 AND SWAP4 POP DUP1 DUP7 AND DUP5 OR SWAP3 POP POP POP SWAP4 SWAP3 POP POP POP JUMP JUMPDEST PUSH0 DUP2 SWAP1 POP SWAP2 SWAP1 POP JUMP JUMPDEST PUSH0 DUP2 SWAP1 POP SWAP2 SWAP1 POP JUMP JUMPDEST PUSH0 PUSH2 0x23C PUSH2 0x237 PUSH2 0x232 DUP5 PUSH2 0x210 JUMP JUMPDEST PUSH2 0x219 JUMP JUMPDEST PUSH2 0x210 JUMP JUMPDEST SWAP1 POP SWAP2 SWAP1 POP JUMP JUMPDEST PUSH0 DUP2 SWAP1 POP SWAP2 SWAP1 POP JUMP JUMPDEST PUSH2 0x255 DUP4 PUSH2 0x222 JUMP JUMPDEST PUSH2 0x269 PUSH2 0x261 DUP3 PUSH2 0x243 JUMP JUMPDEST DUP5 DUP5 SLOAD PUSH2 0x1BF JUMP JUMPDEST DUP3 SSTORE POP POP POP POP JUMP JUMPDEST PUSH0 PUSH0 SWAP1 POP SWAP1 JUMP JUMPDEST PUSH2 0x280 PUSH2 0x271 JUMP JUMPDEST PUSH2 0x28B DUP2 DUP5 DUP5 PUSH2 0x24C JUMP JUMPDEST POP POP POP JUMP JUMPDEST JUMPDEST DUP2 DUP2 LT ISZERO PUSH2 0x2AE JUMPI PUSH2 0x2A3 PUSH0 DUP3 PUSH2 0x278 JUMP JUMPDEST PUSH1 0x1 DUP2 ADD SWAP1 POP PUSH2 0x291 JUMP JUMPDEST POP POP JUMP JUMPDEST PUSH1 0x1F DUP3 GT ISZERO PUSH2 0x2F3 JUMPI PUSH2 0x2C4 DUP2 PUSH2 0x192 JUMP JUMPDEST PUSH2 0x2CD DUP5 PUSH2 0x1A4 JUMP JUMPDEST DUP2 ADD PUSH1 0x20 DUP6 LT ISZERO PUSH2 0x2DC JUMPI DUP2 SWAP1 POP JUMPDEST PUSH2 0x2F0 PUSH2 0x2E8 DUP6 PUSH2 0x1A4 JUMP JUMPDEST DUP4 ADD DUP3 PUSH2 0x290 JUMP JUMPDEST POP POP JUMPDEST POP POP POP JUMP JUMPDEST PUSH0 DUP3 DUP3 SHR SWAP1 POP SWAP3 SWAP2 POP POP JUMP JUMPDEST PUSH0 PUSH2 0x313 PUSH0 NOT DUP5 PUSH1 0x8 MUL PUSH2 0x2F8 JUMP JUMPDEST NOT DUP1 DUP4 AND SWAP2 POP POP SWAP3 SWAP2 POP POP JUMP JUMPDEST PUSH0 PUSH2 0x32B DUP4 DUP4 PUSH2 0x304 JUMP JUMPDEST SWAP2 POP DUP3 PUSH1 0x2 MUL DUP3 OR SWAP1 POP SWAP3 SWAP2 POP POP JUMP JUMPDEST PUSH2 0x344 DUP3 PUSH2 0xFE JUMP JUMPDEST PUSH8 0xFFFFFFFFFFFFFFFF DUP2 GT ISZERO PUSH2 0x35D JUMPI PUSH2 0x35C PUSH2 0x108 JUMP JUMPDEST JUMPDEST PUSH2 0x367 DUP3 SLOAD PUSH2 0x162 JUMP JUMPDEST PUSH2 0x372 DUP3 DUP3 DUP6 PUSH2 0x2B2 JUMP JUMPDEST PUSH0 PUSH1 0x20 SWAP1 POP PUSH1 0x1F DUP4 GT PUSH1 0x1 DUP2 EQ PUSH2 0x3A3 JUMPI PUSH0 DUP5 ISZERO PUSH2 0x391 JUMPI DUP3 DUP8 ADD MLOAD SWAP1 POP JUMPDEST PUSH2 0x39B DUP6 DUP3 PUSH2 0x320 JUMP JUMPDEST DUP7 SSTORE POP PUSH2 0x402 JUMP JUMPDEST PUSH1 0x1F NOT DUP5 AND PUSH2 0x3B1 DUP7 PUSH2 0x192 JUMP JUMPDEST PUSH0 JUMPDEST DUP3 DUP2 LT ISZERO PUSH2 0x3D8 JUMPI DUP5 DUP10 ADD MLOAD DUP3 SSTORE PUSH1 0x1 DUP3 ADD SWAP2 POP PUSH1 0x20 DUP6 ADD SWAP5 POP PUSH1 0x20 DUP2 ADD SWAP1 POP PUSH2 0x3B3 JUMP JUMPDEST DUP7 DUP4 LT ISZERO PUSH2 0x3F5 JUMPI DUP5 DUP10 ADD MLOAD PUSH2 0x3F1 PUSH1 0x1F DUP10 AND DUP3 PUSH2 0x304 JUMP JUMPDEST DUP4 SSTORE POP JUMPDEST PUSH1 0x1 PUSH1 0x2 DUP9 MUL ADD DUP9 SSTORE POP POP POP JUMPDEST POP POP POP POP POP POP JUMP JUMPDEST PUSH2 0xBAA DUP1 PUSH2 0x417 PUSH0 CODECOPY PUSH0 RETURN INVALID PUSH1 0x80 PUSH1 0x40 MSTORE CALLVALUE DUP1 ISZERO PUSH2 0xF JUMPI PUSH0 PUSH0 REVERT JUMPDEST POP PUSH1 0x4 CALLDATASIZE LT PUSH2 0x86 JUMPI PUSH0 CALLDATALOAD PUSH1 0xE0 SHR DUP1 PUSH4 0xDD4E9747 GT PUSH2 0x59 JUMPI DUP1 PUSH4 0xDD4E9747 EQ PUSH2 0x110 JUMPI DUP1 PUSH4 0xE1FD72AB EQ PUSH2 0x12C JUMPI DUP1 PUSH4 0xE302418A EQ PUSH2 0x14C JUMPI DUP1 PUSH4 0xFB7EC44F EQ PUSH2 0x16A JUMPI PUSH2 0x86 JUMP JUMPDEST DUP1 PUSH4 0x63CFCCB EQ PUSH2 0x8A JUMPI DUP1 PUSH4 0xA5EECD7 EQ PUSH2 0xA6 JUMPI DUP1 PUSH4 0x478416F6 EQ PUSH2 0xC4 JUMPI DUP1 PUSH4 0x7245E7F5 EQ PUSH2 0xE0 JUMPI JUMPDEST PUSH0 PUSH0 REVERT JUMPDEST PUSH2 0xA4 PUSH1 0x4 DUP1 CALLDATASIZE SUB DUP2 ADD SWAP1 PUSH2 0x9F SWAP2 SWAP1 PUSH2 0x606 JUMP JUMPDEST PUSH2 0x19C JUMP JUMPDEST STOP JUMPDEST PUSH2 0xAE PUSH2 0x1B8 JUMP JUMPDEST PUSH1 0x40 MLOAD PUSH2 0xBB SWAP2 SWAP1 PUSH2 0x6AD JUMP JUMPDEST PUSH1 0x40 MLOAD DUP1 SWAP2 SUB SWAP1 RETURN JUMPDEST PUSH2 0xDE PUSH1 0x4 DUP1 CALLDATASIZE SUB DUP2 ADD SWAP1 PUSH2 0xD9 SWAP2 SWAP1 PUSH2 0x700 JUMP JUMPDEST PUSH2 0x248 JUMP JUMPDEST STOP JUMPDEST PUSH2 0xFA PUSH1 0x4 DUP1 CALLDATASIZE SUB DUP2 ADD SWAP1 PUSH2 0xF5 SWAP2 SWAP1 PUSH2 0x606 JUMP JUMPDEST PUSH2 0x251 JUMP JUMPDEST PUSH1 0x40 MLOAD PUSH2 0x107 SWAP2 SWAP1 PUSH2 0x745 JUMP JUMPDEST PUSH1 0x40 MLOAD DUP1 SWAP2 SUB SWAP1 RETURN JUMPDEST PUSH2 0x12A PUSH1 0x4 DUP1 CALLDATASIZE SUB DUP2 ADD SWAP1 PUSH2 0x125 SWAP2 SWAP1 PUSH2 0x788 JUMP JUMPDEST PUSH2 0x286 JUMP JUMPDEST STOP JUMPDEST PUSH2 0x134 PUSH2 0x344 JUMP JUMPDEST PUSH1 0x40 MLOAD PUSH2 0x143 SWAP4 SWAP3 SWAP2 SWAP1 PUSH2 0x803 JUMP JUMPDEST PUSH1 0x40 MLOAD DUP1 SWAP2 SUB SWAP1 RETURN JUMPDEST PUSH2 0x154 PUSH2 0x3ED JUMP JUMPDEST PUSH1 0x40 MLOAD PUSH2 0x161 SWAP2 SWAP1 PUSH2 0x83F JUMP JUMPDEST PUSH1 0x40 MLOAD DUP1 SWAP2 SUB SWAP1 RETURN JUMPDEST PUSH2 0x184 PUSH1 0x4 DUP1 CALLDATASIZE SUB DUP2 ADD SWAP1 PUSH2 0x17F SWAP2 SWAP1 PUSH2 0x700 JUMP JUMPDEST PUSH2 0x3F2 JUMP JUMPDEST PUSH1 0x40 MLOAD PUSH2 0x193 SWAP4 SWAP3 SWAP2 SWAP1 PUSH2 0x803 JUMP JUMPDEST PUSH1 0x40 MLOAD DUP1 SWAP2 SUB SWAP1 RETURN JUMPDEST DUP1 PUSH1 0x6 SWAP1 DUP2 PUSH2 0x1AB SWAP2 SWAP1 PUSH2 0xA55 JUMP JUMPDEST POP PUSH2 0x1B4 PUSH2 0x1B8 JUMP JUMPDEST POP POP JUMP JUMPDEST PUSH1 0x60 PUSH1 0x6 DUP1 SLOAD PUSH2 0x1C7 SWAP1 PUSH2 0x885 JUMP JUMPDEST DUP1 PUSH1 0x1F ADD PUSH1 0x20 DUP1 SWAP2 DIV MUL PUSH1 0x20 ADD PUSH1 0x40 MLOAD SWAP1 DUP2 ADD PUSH1 0x40 MSTORE DUP1 SWAP3 SWAP2 SWAP1 DUP2 DUP2 MSTORE PUSH1 0x20 ADD DUP3 DUP1 SLOAD PUSH2 0x1F3 SWAP1 PUSH2 0x885 JUMP JUMPDEST DUP1 ISZERO PUSH2 0x23E JUMPI DUP1 PUSH1 0x1F LT PUSH2 0x215 JUMPI PUSH2 0x100 DUP1 DUP4 SLOAD DIV MUL DUP4 MSTORE SWAP2 PUSH1 0x20 ADD SWAP2 PUSH2 0x23E JUMP JUMPDEST DUP3 ADD SWAP2 SWAP1 PUSH0 MSTORE PUSH1 0x20 PUSH0 KECCAK256 SWAP1 JUMPDEST DUP2 SLOAD DUP2 MSTORE SWAP1 PUSH1 0x1 ADD SWAP1 PUSH1 0x20 ADD DUP1 DUP4 GT PUSH2 0x221 JUMPI DUP3 SWAP1 SUB PUSH1 0x1F AND DUP3 ADD SWAP2 JUMPDEST POP POP POP POP POP SWAP1 POP SWAP1 JUMP JUMPDEST DUP1 PUSH0 DUP2 SWAP1 SSTORE POP POP JUMP JUMPDEST PUSH1 0x7 DUP2 DUP1 MLOAD PUSH1 0x20 DUP2 ADD DUP3 ADD DUP1 MLOAD DUP5 DUP3 MSTORE PUSH1 0x20 DUP4 ADD PUSH1 0x20 DUP6 ADD KECCAK256 DUP2 DUP4 MSTORE DUP1 SWAP6 POP POP POP POP POP POP PUSH0 SWAP2 POP SLOAD SWAP1 PUSH2 0x100 EXP SWAP1 DIV PUSH1 0xFF AND DUP2 JUMP JUMPDEST PUSH1 0x5 PUSH1 0x40 MLOAD DUP1 PUSH1 0x60 ADD PUSH1 0x40 MSTORE DUP1 DUP6 DUP2 MSTORE PUSH1 0x20 ADD DUP5 DUP2 MSTORE PUSH1 0x20 ADD DUP4 ISZERO ISZERO DUP2 MSTORE POP SWAP1 DUP1 PUSH1 0x1 DUP2 SLOAD ADD DUP1 DUP3 SSTORE DUP1 SWAP2 POP POP PUSH1 0x1 SWAP1 SUB SWAP1 PUSH0 MSTORE PUSH1 0x20 PUSH0 KECCAK256 SWAP1 PUSH1 0x3 MUL ADD PUSH0 SWAP1 SWAP2 SWAP1 SWAP2 SWAP1 SWAP2 POP PUSH0 DUP3 ADD MLOAD DUP2 PUSH0 ADD SSTORE PUSH1 0x20 DUP3 ADD MLOAD DUP2 PUSH1 0x1 ADD SWAP1 DUP2 PUSH2 0x2E8 SWAP2 SWAP1 PUSH2 0xA55 JUMP JUMPDEST POP PUSH1 0x40 DUP3 ADD MLOAD DUP2 PUSH1 0x2 ADD PUSH0 PUSH2 0x100 EXP DUP2 SLOAD DUP2 PUSH1 0xFF MUL NOT AND SWAP1 DUP4 ISZERO ISZERO MUL OR SWAP1 SSTORE POP POP POP DUP1 PUSH1 0x7 DUP4 PUSH1 0x40 MLOAD PUSH2 0x31B SWAP2 SWAP1 PUSH2 0xB5E JUMP JUMPDEST SWAP1 DUP2 MSTORE PUSH1 0x20 ADD PUSH1 0x40 MLOAD DUP1 SWAP2 SUB SWAP1 KECCAK256 PUSH0 PUSH2 0x100 EXP DUP2 SLOAD DUP2 PUSH1 0xFF MUL NOT AND SWAP1 DUP4 ISZERO ISZERO MUL OR SWAP1 SSTORE POP POP POP POP JUMP JUMPDEST PUSH1 0x2 DUP1 PUSH0 ADD SLOAD SWAP1 DUP1 PUSH1 0x1 ADD DUP1 SLOAD PUSH2 0x35A SWAP1 PUSH2 0x885 JUMP JUMPDEST DUP1 PUSH1 0x1F ADD PUSH1 0x20 DUP1 SWAP2 DIV MUL PUSH1 0x20 ADD PUSH1 0x40 MLOAD SWAP1 DUP2 ADD PUSH1 0x40 MSTORE DUP1 SWAP3 SWAP2 SWAP1 DUP2 DUP2 MSTORE PUSH1 0x20 ADD DUP3 DUP1 SLOAD PUSH2 0x386 SWAP1 PUSH2 0x885 JUMP JUMPDEST DUP1 ISZERO PUSH2 0x3D1 JUMPI DUP1 PUSH1 0x1F LT PUSH2 0x3A8 JUMPI PUSH2 0x100 DUP1 DUP4 SLOAD DIV MUL DUP4 MSTORE SWAP2 PUSH1 0x20 ADD SWAP2 PUSH2 0x3D1 JUMP JUMPDEST DUP3 ADD SWAP2 SWAP1 PUSH0 MSTORE PUSH1 0x20 PUSH0 KECCAK256 SWAP1 JUMPDEST DUP2 SLOAD DUP2 MSTORE SWAP1 PUSH1 0x1 ADD SWAP1 PUSH1 0x20 ADD DUP1 DUP4 GT PUSH2 0x3B4 JUMPI DUP3 SWAP1 SUB PUSH1 0x1F AND DUP3 ADD SWAP2 JUMPDEST POP POP POP POP POP SWAP1 DUP1 PUSH1 0x2 ADD PUSH0 SWAP1 SLOAD SWAP1 PUSH2 0x100 EXP SWAP1 DIV PUSH1 0xFF AND SWAP1 POP DUP4 JUMP JUMPDEST PUSH0 SLOAD DUP2 JUMP JUMPDEST PUSH1 0x5 DUP2 DUP2 SLOAD DUP2 LT PUSH2 0x401 JUMPI PUSH0 DUP1 REVERT JUMPDEST SWAP1 PUSH0 MSTORE PUSH1 0x20 PUSH0 KECCAK256 SWAP1 PUSH1 0x3 MUL ADD PUSH0 SWAP2 POP SWAP1 POP DUP1 PUSH0 ADD SLOAD SWAP1 DUP1 PUSH1 0x1 ADD DUP1 SLOAD PUSH2 0x426 SWAP1 PUSH2 0x885 JUMP JUMPDEST DUP1 PUSH1 0x1F ADD PUSH1 0x20 DUP1 SWAP2 DIV MUL PUSH1 0x20 ADD PUSH1 0x40 MLOAD SWAP1 DUP2 ADD PUSH1 0x40 MSTORE DUP1 SWAP3 SWAP2 SWAP1 DUP2 DUP2 MSTORE PUSH1 0x20 ADD DUP3 DUP1 SLOAD PUSH2 0x452 SWAP1 PUSH2 0x885 JUMP JUMPDEST DUP1 ISZERO PUSH2 0x49D JUMPI DUP1 PUSH1 0x1F LT PUSH2 0x474 JUMPI PUSH2 0x100 DUP1 DUP4 SLOAD DIV MUL DUP4 MSTORE SWAP2 PUSH1 0x20 ADD SWAP2 PUSH2 0x49D JUMP JUMPDEST DUP3 ADD SWAP2 SWAP1 PUSH0 MSTORE PUSH1 0x20 PUSH0 KECCAK256 SWAP1 JUMPDEST DUP2 SLOAD DUP2 MSTORE SWAP1 PUSH1 0x1 ADD SWAP1 PUSH1 0x20 ADD DUP1 DUP4 GT PUSH2 0x480 JUMPI DUP3 SWAP1 SUB PUSH1 0x1F AND DUP3 ADD SWAP2 JUMPDEST POP POP POP POP POP SWAP1 DUP1 PUSH1 0x2 ADD PUSH0 SWAP1 SLOAD SWAP1 PUSH2 0x100 EXP SWAP1 DIV PUSH1 0xFF AND SWAP1 POP DUP4 JUMP JUMPDEST PUSH0 PUSH1 0x40 MLOAD SWAP1 POP SWAP1 JUMP JUMPDEST PUSH0 PUSH0 REVERT JUMPDEST PUSH0 PUSH0 REVERT JUMPDEST PUSH0 PUSH0 REVERT JUMPDEST PUSH0 PUSH0 REVERT JUMPDEST PUSH0 PUSH1 0x1F NOT PUSH1 0x1F DUP4 ADD AND SWAP1 POP SWAP2 SWAP1 POP JUMP JUMPDEST PUSH32 0x4E487B7100000000000000000000000000000000000000000000000000000000 PUSH0 MSTORE PUSH1 0x41 PUSH1 0x4 MSTORE PUSH1 0x24 PUSH0 REVERT JUMPDEST PUSH2 0x518 DUP3 PUSH2 0x4D2 JUMP JUMPDEST DUP2 ADD DUP2 DUP2 LT PUSH8 0xFFFFFFFFFFFFFFFF DUP3 GT OR ISZERO PUSH2 0x537 JUMPI PUSH2 0x536 PUSH2 0x4E2 JUMP JUMPDEST JUMPDEST DUP1 PUSH1 0x40 MSTORE POP POP POP JUMP JUMPDEST PUSH0 PUSH2 0x549 PUSH2 0x4B9 JUMP JUMPDEST SWAP1 POP PUSH2 0x555 DUP3 DUP3 PUSH2 0x50F JUMP JUMPDEST SWAP2 SWAP1 POP JUMP JUMPDEST PUSH0 PUSH8 0xFFFFFFFFFFFFFFFF DUP3 GT ISZERO PUSH2 0x574 JUMPI PUSH2 0x573 PUSH2 0x4E2 JUMP JUMPDEST JUMPDEST PUSH2 0x57D DUP3 PUSH2 0x4D2 JUMP JUMPDEST SWAP1 POP PUSH1 0x20 DUP2 ADD SWAP1 POP SWAP2 SWAP1 POP JUMP JUMPDEST DUP3 DUP2 DUP4 CALLDATACOPY PUSH0 DUP4 DUP4 ADD MSTORE POP POP POP JUMP JUMPDEST PUSH0 PUSH2 0x5AA PUSH2 0x5A5 DUP5 PUSH2 0x55A JUMP JUMPDEST PUSH2 0x540 JUMP JUMPDEST SWAP1 POP DUP3 DUP2 MSTORE PUSH1 0x20 DUP2 ADD DUP5 DUP5 DUP5 ADD GT ISZERO PUSH2 0x5C6 JUMPI PUSH2 0x5C5 PUSH2 0x4CE JUMP JUMPDEST JUMPDEST PUSH2 0x5D1 DUP5 DUP3 DUP6 PUSH2 0x58A JUMP JUMPDEST POP SWAP4 SWAP3 POP POP POP JUMP JUMPDEST PUSH0 DUP3 PUSH1 0x1F DUP4 ADD SLT PUSH2 0x5ED JUMPI PUSH2 0x5EC PUSH2 0x4CA JUMP JUMPDEST JUMPDEST DUP2 CALLDATALOAD PUSH2 0x5FD DUP5 DUP3 PUSH1 0x20 DUP7 ADD PUSH2 0x598 JUMP JUMPDEST SWAP2 POP POP SWAP3 SWAP2 POP POP JUMP JUMPDEST PUSH0 PUSH1 0x20 DUP3 DUP5 SUB SLT ISZERO PUSH2 0x61B JUMPI PUSH2 0x61A PUSH2 0x4C2 JUMP JUMPDEST JUMPDEST PUSH0 DUP3 ADD CALLDATALOAD PUSH8 0xFFFFFFFFFFFFFFFF DUP2 GT ISZERO PUSH2 0x638 JUMPI PUSH2 0x637 PUSH2 0x4C6 JUMP JUMPDEST JUMPDEST PUSH2 0x644 DUP5 DUP3 DUP6 ADD PUSH2 0x5D9 JUMP JUMPDEST SWAP2 POP POP SWAP3 SWAP2 POP POP JUMP JUMPDEST PUSH0 DUP2 MLOAD SWAP1 POP SWAP2 SWAP1 POP JUMP JUMPDEST PUSH0 DUP3 DUP3 MSTORE PUSH1 0x20 DUP3 ADD SWAP1 POP SWAP3 SWAP2 POP POP JUMP JUMPDEST DUP3 DUP2 DUP4 MCOPY PUSH0 DUP4 DUP4 ADD MSTORE POP POP POP JUMP JUMPDEST PUSH0 PUSH2 0x67F DUP3 PUSH2 0x64D JUMP JUMPDEST PUSH2 0x689 DUP2 DUP6 PUSH2 0x657 JUMP JUMPDEST SWAP4 POP PUSH2 0x699 DUP2 DUP6 PUSH1 0x20 DUP7 ADD PUSH2 0x667 JUMP JUMPDEST PUSH2 0x6A2 DUP2 PUSH2 0x4D2 JUMP JUMPDEST DUP5 ADD SWAP2 POP POP SWAP3 SWAP2 POP POP JUMP JUMPDEST PUSH0 PUSH1 0x20 DUP3 ADD SWAP1 POP DUP2 DUP2 SUB PUSH0 DUP4 ADD MSTORE PUSH2 0x6C5 DUP2 DUP5 PUSH2 0x675 JUMP JUMPDEST SWAP1 POP SWAP3 SWAP2 POP POP JUMP JUMPDEST PUSH0 DUP2 SWAP1 POP SWAP2 SWAP1 POP JUMP JUMPDEST PUSH2 0x6DF DUP2 PUSH2 0x6CD JUMP JUMPDEST DUP2 EQ PUSH2 0x6E9 JUMPI PUSH0 PUSH0 REVERT JUMPDEST POP JUMP JUMPDEST PUSH0 DUP2 CALLDATALOAD SWAP1 POP PUSH2 0x6FA DUP2 PUSH2 0x6D6 JUMP JUMPDEST SWAP3 SWAP2 POP POP JUMP JUMPDEST PUSH0 PUSH1 0x20 DUP3 DUP5 SUB SLT ISZERO PUSH2 0x715 JUMPI PUSH2 0x714 PUSH2 0x4C2 JUMP JUMPDEST JUMPDEST PUSH0 PUSH2 0x722 DUP5 DUP3 DUP6 ADD PUSH2 0x6EC JUMP JUMPDEST SWAP2 POP POP SWAP3 SWAP2 POP POP JUMP JUMPDEST PUSH0 DUP2 ISZERO ISZERO SWAP1 POP SWAP2 SWAP1 POP JUMP JUMPDEST PUSH2 0x73F DUP2 PUSH2 0x72B JUMP JUMPDEST DUP3 MSTORE POP POP JUMP JUMPDEST PUSH0 PUSH1 0x20 DUP3 ADD SWAP1 POP PUSH2 0x758 PUSH0 DUP4 ADD DUP5 PUSH2 0x736 JUMP JUMPDEST SWAP3 SWAP2 POP POP JUMP JUMPDEST PUSH2 0x767 DUP2 PUSH2 0x72B JUMP JUMPDEST DUP2 EQ PUSH2 0x771 JUMPI PUSH0 PUSH0 REVERT JUMPDEST POP JUMP JUMPDEST PUSH0 DUP2 CALLDATALOAD SWAP1 POP PUSH2 0x782 DUP2 PUSH2 0x75E JUMP JUMPDEST SWAP3 SWAP2 POP POP JUMP JUMPDEST PUSH0 PUSH0 PUSH0 PUSH1 0x60 DUP5 DUP7 SUB SLT ISZERO PUSH2 0x79F JUMPI PUSH2 0x79E PUSH2 0x4C2 JUMP JUMPDEST JUMPDEST PUSH0 PUSH2 0x7AC DUP7 DUP3 DUP8 ADD PUSH2 0x6EC JUMP JUMPDEST SWAP4 POP POP PUSH1 0x20 DUP5 ADD CALLDATALOAD PUSH8 0xFFFFFFFFFFFFFFFF DUP2 GT ISZERO PUSH2 0x7CD JUMPI PUSH2 0x7CC PUSH2 0x4C6 JUMP JUMPDEST JUMPDEST PUSH2 0x7D9 DUP7 DUP3 DUP8 ADD PUSH2 0x5D9 JUMP JUMPDEST SWAP3 POP POP PUSH1 0x40 PUSH2 0x7EA DUP7 DUP3 DUP8 ADD PUSH2 0x774 JUMP JUMPDEST SWAP2 POP POP SWAP3 POP SWAP3 POP SWAP3 JUMP JUMPDEST PUSH2 0x7FD DUP2 PUSH2 0x6CD JUMP JUMPDEST DUP3 MSTORE POP POP JUMP JUMPDEST PUSH0 PUSH1 0x60 DUP3 ADD SWAP1 POP PUSH2 0x816 PUSH0 DUP4 ADD DUP7 PUSH2 0x7F4 JUMP JUMPDEST DUP2 DUP2 SUB PUSH1 0x20 DUP4 ADD MSTORE PUSH2 0x828 DUP2 DUP6 PUSH2 0x675 JUMP JUMPDEST SWAP1 POP PUSH2 0x837 PUSH1 0x40 DUP4 ADD DUP5 PUSH2 0x736 JUMP JUMPDEST SWAP5 SWAP4 POP POP POP POP JUMP JUMPDEST PUSH0 PUSH1 0x20 DUP3 ADD SWAP1 POP PUSH2 0x852 PUSH0 DUP4 ADD DUP5 PUSH2 0x7F4 JUMP JUMPDEST SWAP3 SWAP2 POP POP JUMP JUMPDEST PUSH32 0x4E487B7100000000000000000000000000000000000000000000000000000000 PUSH0 MSTORE PUSH1 0x22 PUSH1 0x4 MSTORE PUSH1 0x24 PUSH0 REVERT JUMPDEST PUSH0 PUSH1 0x2 DUP3 DIV SWAP1 POP PUSH1 0x1 DUP3 AND DUP1 PUSH2 0x89C JUMPI PUSH1 0x7F DUP3 AND SWAP2 POP JUMPDEST PUSH1 0x20 DUP3 LT DUP2 SUB PUSH2 0x8AF JUMPI PUSH2 0x8AE PUSH2 0x858 JUMP JUMPDEST JUMPDEST POP SWAP2 SWAP1 POP JUMP JUMPDEST PUSH0 DUP2 SWAP1 POP DUP2 PUSH0 MSTORE PUSH1 0x20 PUSH0 KECCAK256 SWAP1 POP SWAP2 SWAP1 POP JUMP JUMPDEST PUSH0 PUSH1 0x20 PUSH1 0x1F DUP4 ADD DIV SWAP1 POP SWAP2 SWAP1 POP JUMP JUMPDEST PUSH0 DUP3 DUP3 SHL SWAP1 POP SWAP3 SWAP2 POP POP JUMP JUMPDEST PUSH0 PUSH1 0x8 DUP4 MUL PUSH2 0x911 PUSH32 0xFFFFFFFFFFFFFFFFFFFFFFFFFFFFFFFFFFFFFFFFFFFFFFFFFFFFFFFFFFFFFFFF DUP3 PUSH2 0x8D6 JUMP JUMPDEST PUSH2 0x91B DUP7 DUP4 PUSH2 0x8D6 JUMP JUMPDEST SWAP6 POP DUP1 NOT DUP5 AND SWAP4 POP DUP1 DUP7 AND DUP5 OR SWAP3 POP POP POP SWAP4 SWAP3 POP POP POP JUMP JUMPDEST PUSH0 DUP2 SWAP1 POP SWAP2 SWAP1 POP JUMP JUMPDEST PUSH0 PUSH2 0x956 PUSH2 0x951 PUSH2 0x94C DUP5 PUSH2 0x6CD JUMP JUMPDEST PUSH2 0x933 JUMP JUMPDEST PUSH2 0x6CD JUMP JUMPDEST SWAP1 POP SWAP2 SWAP1 POP JUMP JUMPDEST PUSH0 DUP2 SWAP1 POP SWAP2 SWAP1 POP JUMP JUMPDEST PUSH2 0x96F DUP4 PUSH2 0x93C JUMP JUMPDEST PUSH2 0x983 PUSH2 0x97B DUP3 PUSH2 0x95D JUMP JUMPDEST DUP5 DUP5 SLOAD PUSH2 0x8E2 JUMP JUMPDEST DUP3 SSTORE POP POP POP POP JUMP JUMPDEST PUSH0 PUSH0 SWAP1 POP SWAP1 JUMP JUMPDEST PUSH2 0x99A PUSH2 0x98B JUMP JUMPDEST PUSH2 0x9A5 DUP2 DUP5 DUP5 PUSH2 0x966 JUMP JUMPDEST POP POP POP JUMP JUMPDEST JUMPDEST DUP2 DUP2 LT ISZERO PUSH2 0x9C8 JUMPI PUSH2 0x9BD PUSH0 DUP3 PUSH2 0x992 JUMP JUMPDEST PUSH1 0x1 DUP2 ADD SWAP1 POP PUSH2 0x9AB JUMP JUMPDEST POP POP JUMP JUMPDEST PUSH1 0x1F DUP3 GT ISZERO PUSH2 0xA0D JUMPI PUSH2 0x9DE DUP2 PUSH2 0x8B5 JUMP JUMPDEST PUSH2 0x9E7 DUP5 PUSH2 0x8C7 JUMP JUMPDEST DUP2 ADD PUSH1 0x20 DUP6 LT ISZERO PUSH2 0x9F6 JUMPI DUP2 SWAP1 POP JUMPDEST PUSH2 0xA0A PUSH2 0xA02 DUP6 PUSH2 0x8C7 JUMP JUMPDEST DUP4 ADD DUP3 PUSH2 0x9AA JUMP JUMPDEST POP POP JUMPDEST POP POP POP JUMP JUMPDEST PUSH0 DUP3 DUP3 SHR SWAP1 POP SWAP3 SWAP2 POP POP JUMP JUMPDEST PUSH0 PUSH2 0xA2D PUSH0 NOT DUP5 PUSH1 0x8 MUL PUSH2 0xA12 JUMP JUMPDEST NOT DUP1 DUP4 AND SWAP2 POP POP SWAP3 SWAP2 POP POP JUMP JUMPDEST PUSH0 PUSH2 0xA45 DUP4 DUP4 PUSH2 0xA1E JUMP JUMPDEST SWAP2 POP DUP3 PUSH1 0x2 MUL DUP3 OR SWAP1 POP SWAP3 SWAP2 POP POP JUMP JUMPDEST PUSH2 0xA5E DUP3 PUSH2 0x64D JUMP JUMPDEST PUSH8 0xFFFFFFFFFFFFFFFF DUP2 GT ISZERO PUSH2 0xA77 JUMPI PUSH2 0xA76 PUSH2 0x4E2 JUMP JUMPDEST JUMPDEST PUSH2 0xA81 DUP3 SLOAD PUSH2 0x885 JUMP JUMPDEST PUSH2 0xA8C DUP3 DUP3 DUP6 PUSH2 0x9CC JUMP JUMPDEST PUSH0 PUSH1 0x20 SWAP1 POP PUSH1 0x1F DUP4 GT PUSH1 0x1 DUP2 EQ PUSH2 0xABD JUMPI PUSH0 DUP5 ISZERO PUSH2 0xAAB JUMPI DUP3 DUP8 ADD MLOAD SWAP1 POP JUMPDEST PUSH2 0xAB5 DUP6 DUP3 PUSH2 0xA3A JUMP JUMPDEST DUP7 SSTORE POP PUSH2 0xB1C JUMP JUMPDEST PUSH1 0x1F NOT DUP5 AND PUSH2 0xACB DUP7 PUSH2 0x8B5 JUMP JUMPDEST PUSH0 JUMPDEST DUP3 DUP2 LT ISZERO PUSH2 0xAF2 JUMPI DUP5 DUP10 ADD MLOAD DUP3 SSTORE PUSH1 0x1 DUP3 ADD SWAP2 POP PUSH1 0x20 DUP6 ADD SWAP5 POP PUSH1 0x20 DUP2 ADD SWAP1 POP PUSH2 0xACD JUMP JUMPDEST DUP7 DUP4 LT ISZERO PUSH2 0xB0F JUMPI DUP5 DUP10 ADD MLOAD PUSH2 0xB0B PUSH1 0x1F DUP10 AND DUP3 PUSH2 0xA1E JUMP JUMPDEST DUP4 SSTORE POP JUMPDEST PUSH1 0x1 PUSH1 0x2 DUP9 MUL ADD DUP9 SSTORE POP POP POP JUMPDEST POP POP POP POP POP POP JUMP JUMPDEST PUSH0 DUP2 SWAP1 POP SWAP3 SWAP2 POP POP JUMP JUMPDEST PUSH0 PUSH2 0xB38 DUP3 PUSH2 0x64D JUMP JUMPDEST PUSH2 0xB42 DUP2 DUP6 PUSH2 0xB24 JUMP JUMPDEST SWAP4 POP PUSH2 0xB52 DUP2 DUP6 PUSH1 0x20 DUP7 ADD PUSH2 0x667 JUMP JUMPDEST DUP1 DUP5 ADD SWAP2 POP POP SWAP3 SWAP2 POP POP JUMP JUMPDEST PUSH0 PUSH2 0xB69 DUP3 DUP5 PUSH2 0xB2E JUMP JUMPDEST SWAP2 POP DUP2 SWAP1 POP SWAP3 SWAP2 POP POP JUMP INVALID LOG2 PUSH5 0x6970667358 0x22 SLT KECCAK256 0xB8 LOG2 0xFC 0xB0 PUSH12 0xFE96B0CDEC1AF74F188E82A5 0xC9 REVERT 0xCE DUP5 0xB1 0xD4 DIV SLOAD PUSH32 0x897DE01AB91C64736F6C634300081E0033000000000000000000000000000000 "
				},
				"gasEstimates": {
					"creation": {
						"codeDepositCost": "597200",
						"executionCost": "infinite",
						"totalCost": "infinite"
					},
					"external": {
						"Gustav()": "infinite",
						"addPerson(uint256,string,bool)": "infinite",
						"nameToIsAdmin(string)": "infinite",
						"personsInDB(uint256)": "infinite",
						"retrieveName()": "infinite",
						"storeID(uint256)": "22559",
						"storeName(string)": "infinite",
						"userID()": "2468"
					}
				},
				"methodIdentifiers": {
					"Gustav()": "e1fd72ab",
					"addPerson(uint256,string,bool)": "dd4e9747",
					"nameToIsAdmin(string)": "7245e7f5",
					"personsInDB(uint256)": "fb7ec44f",
					"retrieveName()": "0a5eecd7",
					"storeID(uint256)": "478416f6",
					"storeName(string)": "063cfccb",
					"userID()": "e302418a"
				}
			},
			"storageLayout": {
				"storage": [
					{
						"astId": 3,
						"contract": "FirstStorage.sol:FirstStorage",
						"label": "userID",
						"offset": 0,
						"slot": "0",
						"type": "t_uint256"
					},
					{
						"astId": 6,
						"contract": "FirstStorage.sol:FirstStorage",
						"label": "listOfIds",
						"offset": 0,
						"slot": "1",
						"type": "t_array(t_uint256)dyn_storage"
					},
					{
						"astId": 21,
						"contract": "FirstStorage.sol:FirstStorage",
						"label": "Gustav",
						"offset": 0,
						"slot": "2",
						"type": "t_struct(Person)13_storage"
					},
					{
						"astId": 25,
						"contract": "FirstStorage.sol:FirstStorage",
						"label": "personsInDB",
						"offset": 0,
						"slot": "5",
						"type": "t_array(t_struct(Person)13_storage)dyn_storage"
					},
					{
						"astId": 27,
						"contract": "FirstStorage.sol:FirstStorage",
						"label": "userName",
						"offset": 0,
						"slot": "6",
						"type": "t_string_storage"
					},
					{
						"astId": 31,
						"contract": "FirstStorage.sol:FirstStorage",
						"label": "nameToIsAdmin",
						"offset": 0,
						"slot": "7",
						"type": "t_mapping(t_string_memory_ptr,t_bool)"
					},
					{
						"astId": 34,
						"contract": "FirstStorage.sol:FirstStorage",
						"label": "addressFirstStorage",
						"offset": 0,
						"slot": "8",
						"type": "t_address"
					}
				],
				"types": {
					"t_address": {
						"encoding": "inplace",
						"label": "address",
						"numberOfBytes": "20"
					},
					"t_array(t_struct(Person)13_storage)dyn_storage": {
						"base": "t_struct(Person)13_storage",
						"encoding": "dynamic_array",
						"label": "struct FirstStorage.Person[]",
						"numberOfBytes": "32"
					},
					"t_array(t_uint256)dyn_storage": {
						"base": "t_uint256",
						"encoding": "dynamic_array",
						"label": "uint256[]",
						"numberOfBytes": "32"
					},
					"t_bool": {
						"encoding": "inplace",
						"label": "bool",
						"numberOfBytes": "1"
					},
					"t_mapping(t_string_memory_ptr,t_bool)": {
						"encoding": "mapping",
						"key": "t_string_memory_ptr",
						"label": "mapping(string => bool)",
						"numberOfBytes": "32",
						"value": "t_bool"
					},
					"t_string_memory_ptr": {
						"encoding": "bytes",
						"label": "string",
						"numberOfBytes": "32"
					},
					"t_string_storage": {
						"encoding": "bytes",
						"label": "string",
						"numberOfBytes": "32"
					},
					"t_struct(Person)13_storage": {
						"encoding": "inplace",
						"label": "struct FirstStorage.Person",
						"members": [
							{
								"astId": 8,
								"contract": "FirstStorage.sol:FirstStorage",
								"label": "id",
								"offset": 0,
								"slot": "0",
								"type": "t_uint256"
							},
							{
								"astId": 10,
								"contract": "FirstStorage.sol:FirstStorage",
								"label": "name",
								"offset": 0,
								"slot": "1",
								"type": "t_string_storage"
							},
							{
								"astId": 12,
								"contract": "FirstStorage.sol:FirstStorage",
								"label": "isAdmin",
								"offset": 0,
								"slot": "2",
								"type": "t_bool"
							}
						],
						"numberOfBytes": "96"
					},
					"t_uint256": {
						"encoding": "inplace",
						"label": "uint256",
						"numberOfBytes": "32"
					}
				}
			},
			"userdoc": {
				"kind": "user",
				"methods": {},
				"version": 1
			}
		}
	}
}